:20101000004C00202DB4000011CE000011CE000011CE000011CE000011CE000011CE000039
:1C10300011CE000011CE000011CE000011CE000011CE000011CE00009FD80000F3
:20104C0030B5ADF1540D1390139818B9B0480CF0B1FE04E01398AE491DC881E81D00AD48F8
:20106C00007858B1AC480068002105F02FFE08B90920E0E2A948006804F0CCFBA84800781C
:20108C00B8B9A8480CF0C8FEA748A64900680860A648006850B1A648006838B1A348A54904
:2010AC0000680860A248BB49006808609C4901200870BA48B84900680860B9481C220021E5
:2010CC0007F0B8FDB64943F605000880B5496FF04F000870B449087820F00F000870B34860
:2010EC00B249007820F00F0040F003000870B049087840F001000870AD49087840F00800D7
:20110C000870AB49087820F010000870A948A949007820F00F0040F004000870A64944F6F0
:20112C002060086001208DF8500000208DF8510000208DF85200A1490020087075E00CF005
:20114C0073FD10B90CF0CBFB10B100208DF8500001208DF8510081E00CF066FD00287DD1A5
:20116C000CF0BDFB002879D101208DF8500001208DF8510072E00CF057FD00286ED10CF04B
:20118C00AEFB00286AD10CF09EFB002866D101208DF8500001208DF851005FE00BF048F9DB
:2011AC0008285BD100208DF8500001208DF8510054E00BF03DF9052850D100208DF8500033
:2011CC0001208DF8510049E00BF032F9082845D100208DF8500001208DF851003EE00CF071
:2011EC0023FD00283AD10CF07AFB002836D101208DF8500001208DF851002FE00BF018F9E8
:20120C000C2807D00BF014F90D2803D00BF010F90E2823D101208DF8500001208DF851008C
:20122C001CE000208DF8510018E0394800780728F7D802A151F820008746C0464B11000086
:20124C006511000083110000BF110000EB110000A9110000D5110000091200009DF851000B
:20126C0040B92D48006818B12B48006808F060FE0220E0E100208DF8530028E024499DF8AD
:20128C005330A24A0978980000EB4310105C814218D19DF853309D4A9D49980000EB4310A9
:2012AC00801808609DF853209A49900000EB4210085818B901208DF852000EE03F490120AA
:2012CC0008700AE09DF85300401C8DF8530092489DF8531000788842D0DC8D48006840B98E
:2012EC000D48006818B10C48006808F021FE0220A1E19DF85000F8B185480068874980686A
:20130C003CC83CC11CC81CC10DC881E80D001CE0CC1F00201A3A0020041F0020001F0020B7
:20132C001D3A0020841E0020283A0020D01F0020D41F0020981E0020754800687749806821
:20134C003CC83CC11DC881E81D0071480068BB49C0681CC81CC10DC881E80D006C480068A0
:20136C00B74940681DC881E81D0069480068B54980693CC83CC13CC83CC11DC881E81D00E1
:20138C009DF85200E0B1624800680169AE4808F0FDFF1EE09C1E0020FC1E0020D81F00203A
:2013AC00141E0020251E0020201E0020211E0020241E00202B1E00202C1E00201C3A002004
:2013CC0053480068A04940693CC83CC11DC881E81D009E48007810B19949052008709C487E
:2013EC0097494E4AB54B02F0B7F8B549086099490020088098490020086098490020086006
:20140C009749087820F00F0008709549087820F0100008709249087820F0600008709049B7
:20142C00087820F0800008708E488E49007820F00F0040F0010008708A49087820F0F000D8
:20144C0008708949087820F0010008708649087820F0020008708449087820F0040008707B
:20146C008149087840F0080008707F49087820F0100008707C49087820F0400008707A49B6
:20148C00087820F0800008707849087820F0010008707649087820F00200087073490878E9
:2014AC0040F0080008707149087820F0100008706E49087820F0200008706C49087820F07A
:2014CC00400008706949087820F0800008706849002008606749882008807A480078F8B112
:2014EC0066486549086066486549007820F03F0040F01000087063496FF0030008705A4918
:20150C00087820F0200008701DE0C046A8320020243A0020BC320020F1300100281D002087
:20152C0059485549086056485549007820F03F0040F0080008705349002008704A490878FE
:20154C0040F02000087051485049007820F0F80040F0400008704A49088820F4F860088006
:20156C004B49087820F0010008704A4801784848007861F34500464908704549088820F4DD
:20158C00F860088044484449007820F0F80040F00800087041484149007820F00F0040F03C
:2015AC00010008703D49087820F0100008703B49087820F0600008703849087820F080008B
:2015CC00087037490020086037483649086038483649086038483749086002204FF0E241C6
:2015EC008DE80300364815490068002200230BF0B9FB02A80CF091FB0BA80CF0FDFA3248DD
:20160C00006880B9002002A90BAA0AF075FE2E4908602D48006808B903200CE02A480068CA
:20162C0008F086FC03E02848006808F081FC274801210170002015B030BDC0460C1F0020CF
:20164C00BC1F0020C81C0020741D00201E3A002098170020CA1C0020CC1C0020D01C00206D
:20166C00D41C0020D51C0020D61C0020D71C0020DC1C0020E01C0020D81C00204E9055009D
:20168C00E21C0020E61C0020DE510B93E31C0020E41C0020183A0020E51C0020E71C00203C
:2016AC00E81C0020EC1C0020C4360020F01C002058200020F41C002038200020841E00208A
:2016CC00001F00201C3A0020041F00201A3A00202DE9F04FDFF860B30F460446F80BADF113
:2016EC00140D80F0F181DFF84C83B80F80F0A681B80880F09381DFF83883F80A80F0F5801A
:20170C00380B80F0CD80380907D2F80FC0F00E8227F0804708F0F6F908E20CF0F0FF8146FB
:20172C000BF0F4FB002800F0B58008200CF014FE002840F0AF8080200CF00EFE002840F0A9
:20174C00A98004A806F0ECF9012803D10498002800F0A0805846C9300078002840F09A807B
:20176C0000240125E0B20CF06BFB48B1867A3EB1857290F9090005FA00F0C0B20AF0FAFA5F
:20178C00641C032CEED344460320207504F1B4000CF0B1FF48460CF08AFFC9480026324674
:2017AC000168066050F8081CC64940F8086C04F138000CF0ACFF30460BF00CFD0CF00EFBD4
:2017CC00A168401A010BE069C1F1FF3282422CBF08444FF0FF30E06194F8200020B12069B2
:2017EC00E169B1EBC02F25D90BF044FD314600B12946081C1BD0D14840F609010180468088
:20180C00417B05F00F0221F00F010A434273017B06F00F0321F00F0143EA01020273314616
:20182C0041600CF037FC418811F4406FFBD084F82050E6610AF040F9C14831460660022016
:20184C000BF052FB02200AF06DFC112005F0CCFB207818B9606848300CF063FFB948007842
:20186C0010B90E2005F0C0FB94F8210020B184F8216005200AF056FCB348A0612675B4F985
:20188C008C00B4F98E10884214BF0220072006F0CBFF02E048460CF00AFF27F0080739E704
:2018AC004446201D05680AF049FA38B12846ED696FF4807100224FF00073A847E06848B1A6
:2018CC000CF08CFAE2686168801AC860000BC8600026E6609D4904F1380000220CF017FFBF
:2018EC0027F400670220207514E70CF008FF06460BF00CFB4446216F0028884600F088804F
:20190C00002900F085809249042504F13800002225750CF0FCFE30460CF0C9FE04F1B400D8
:20192C000CF0E9FE0CF05AFAE060D8F810006060D8F81000416AC90803D3036A2946002258
:20194C009847012008F0DCFE82480CF0A3FB65684FF0010985F81590606807F031FDD5F853
:20196C0008A040F60A02D01F564600F1010C00E01E46736833B119888A4203D0884218BF04
:20198C008C45F5D100217160727B09F00F0322F00F0213437373D8F80C201288904225D0FE
:2019AC006046904222D02C8E0CB3696305F13002518095F83C0001F00F0320F00F00034342
:2019CC0085F83C3095F83D0009F00F0420F00F0044EA000385F83D307260707B01F00F0441
:2019EC0020F00F0044EA0001717300E0E1605046694604F065FF68460CF02CFB0CF016FA0E
:201A0C0050460CF047FB514648460BF06DFA02E030460CF04CFE27F4806787E003F05CFD0C
:201A2C0040467030006808B927F002077EE0C046200D0020280D0020280E00200CF05FFE76
:201A4C00814604200AF05EFFC0B1207DB0B14046006898B1256906460CF0C0F9801B2061E7
:201A6C00000B2061A84202D240194008206140F6C41181422CBFB0F5967F216148460CF06F
:201A8C0016FE0AF05BF988B1E56920466FF4807100224FF00073A847404668300068002826
:201AAC0008BF47F0020701D008F02CF82046A46900214FF080630A46A04727F0005735E0B6
:201ACC001410044071A100000CF019FE22490E6846B306F1280106C90A234FF0E0450B40C8
:201AEC00154008BF002B1DD106F1280191E8300006F1280393E8060006F12803AA43A14346
:201B0C0083E806000CF0D3FDB16869B1002D08BF002C09D030692246B6F93C10B4682B46C7
:201B2C00A04701E00CF0C3FD27F480471FB1584639460CF0FEFD05B0BDE8F08F6C1F0020CB
:201B4C00000004608A2F0100F95F0000CD72000061D2000001010E04A80D00202DE9F04F53
:201B6C0009AFADF13C0D08900A92388809911E46ADF81800101C08BF002000F07581017899
:201B8C0000274FF0010B401C4FF0FF39B846DA460A9061E1252940F056810178401C0A9036
:201BAC002D2918BFADF8068004D10178ADF806B0401C0A9030291CBF4246434604D101788F
:201BCC00401C5A465B460A902A29CDF800804D4617D1049330680A9BCDF80890C01C20F092
:201BEC000300001D306050F8044C1978002C009403F101000A9018D5ADF806A0644200943F
:201C0C0013E044460AE0600000EBC4004018A0F130040A9801780094401C0A90302901DB4B
:201C2C003A29F0DBCDF8089004932E2929D10178401C2A290A9011D13168CDF80880C91CB6
:201C4C0021F00301091D316051F8045C002D48BF454601782B46401C0A9011E0454643465F
:201C6C000AE0680000EBC5004018A0F130050A9801782B46401C0A90302901DB3A29F0DB53
:201C8C0002930AB1224604926C2904D04C2918BFADF8048004D10178ADF804A0401C0A907F
:201CAC000BA8CDF80C800FAB07906429059300F0828069297FD0BDF818C075296DD07829C2
:201CCC0069D06F2965D070294ED063293ED0732922D00A98401E0A90099801281AD966490D
:201CEC000C68B5F1FF3F03D0A84288BF6D1C05D86FF00041814294BF0D1C099D029508A84A
:201D0C000AA932466B46A04709993F18091A0398099165E0454617E03068C01C20F0030055
:201D2C00001D306050F8040CBCF1010F014608B94FA0014607910CF0F1F80390B5F1FF3FA3
:201D4C004FD0A8424DD9039528464AE03068C01C20F00300001D306010F8040C8DF82C001B
:201D6C005D46039558463CE0082035680490E81C20F00300001D306050F8041C0822102380
:201D8C000FA807F0AFFA401E079040210170079823E0082302E0102300E00A233068C01CB6
:201DAC0020F00300001D306050F8041CAA42BCBF2A1C04920DE03068C01C20F00300001D1B
:201DCC00306050F8041CAA42BCBF2A1C04926FF009030FA807F086FA07900599081A039039
:201DEC00009C241ABDF8065000945DB906E008A8202109AA0AF03CFF7F1C009C641E00943C
:201E0C00F5D50398401EB0F1FF3F03900FD1BDF8060001281CD10098401E009018D408A8AE
:201E2C00202109AA0AF024FF00987F1CF4E70798017809AA08A80AF01BFF0798401C079056
:201E4C0003987F1CDEE708A809AA0AF011FF7F1C0A980178401C0A9000297FF49BAE0898DD
:201E6C0008B14146017038460FB0BDE8F08FC046286E756C6C2900C0CC300100BA482DE95D
:201E8C00F84F0025B94CB749056094F8E200002800F06381012800F02F81B54E02283CD0F4
:201EAC00032840F05A8151F8250CD4F8B8100029A0F5C060C4F8D400B8BF49420028B8BFC3
:201ECC004042814226DA4FF08057D7F8A4014568B4F8BC0030214FF47F420823009030468C
:201EEC00A847D7F8A4014568B4F8C00004214FF4F802122300903046A847D7F8A401B4F8AE
:201F0C00D070456820214FF440620A2330460097A847012584F8D8501AE151F8258C0CF0BE
:201F2C00F7F92F4600B901273946924F38680028FCD0B146012609F10409D9F82CA03E60FB
:201F4C0009B10CF0EBF9CAF30720C4F8BC000CF0DFF9AA4600B9B2463B68002BFCD0D9F89F
:201F6C0000B0BAF1000F3E6001D00CF0D7F9CBF38440C4F8C0000CF0CBF9AA4600B9B24651
:201F8C003B68002BFCD0D9F81C90BAF1000F3E6001D00CF0C3F9C9F38120C4F8D000B8F5A7
:201FAC00C061C4F8B81000F09C8094F8D80068B9C4F8D410D4F8C000C4F8C800D4F8BC7037
:201FCC00C4F8C470D4F8D030C4F8CC30D4F8D400D4F8BC30002854BF02226FF0010204F173
:201FEC00C8010F6800EB40008018421000EB927207EBA2000860D4F8C810C4F8C430002918
:20200C001CDD1E293CDDD4F8CC0030B93429B4BF15391E21C4F8C81025E02A29BABFD4F84C
:20202C00C8000B381E20C4F8C800D4F8C4003F28B4BF401C3F20C4F8C4001FE0D4F8CC008B
:20204C00032812D011F10B0FC6BFD4F8C8000B30301CC4F8C800D4F8C4000028C4BF401E8E
:20206C00051CC4F8C450032508E011F1150FC6BFD4F8C8001530301CC4F8C800C4F8CC5027
:20208C004FF08057D7F8A401B4F8C43030214FF47F424568364800930823A847D7F8A40169
:2020AC0004214FF400321123456831480096A847B4F8C860D7F8A40104214FF4F8021223BC
:2020CC0045682B480096A847D7F8A40120214FF440620A23B4F8CC60456825480096A84711
:2020EC0001E084F8D85040F2FF50404502D8801C40452DD208202EE051F8251C1E4F4BF2E5
:20210C00F5204843060A3868C0F3814001280AD10AF0D8FD09F0B2FC0CF006F93111C01068
:20212C00484306EBE03694F8E50030B91348006820F07F403618760801E084F8E55010485F
:20214C00310C0660012741600E4D8760287808B90B2000E0052084F8E40001F059FEBDE8E7
:20216C00F88FC0462D400C402C500C409431002000A00C4000800C40B43F005010200940EC
:20218C003C600C400D2E01002DE9F04F044609AF9A4691468846ADF1140D01940CF0AFFA3A
:2021AC0098490D680290A54208BF4D68974C6FF0010B35B105F180000BF02CFF002840F0A0
:2021CC000F810AF07FFE061C00F0158104F1B4000CF091FAC6F80C80B4F98C0099F80430CC
:2021EC00401C86F83E306FF31F30A4F88C00C6F808A0B4F88C00019AB0878348326197E865
:20220C000C004FF0000B2021DC4606F118071940104087E8030006F1200383E80018C6F86D
:20222C0034B062463263D9F80800B06386F83F20D9F80070009207B1776398F80C0000F0B7
:20224C000F00022804BFD8F808003063082740464368002B18BF002F40F0BE8000886FF322
:20226C000900B0F5305F18BF022006D196F83F0040F0100086F83F00082006F1180191E8CA
:20228C00800106F1180342EA080240EA070183E80600D4F8F8000199814207D194F804013C
:2022AC00410824BF00F0FE0084F80401002D70D0039504F1700101980D6888460AF098FAA4
:2022CC00B1465F465FEA000A0FD1D8F800202AB1D4F88010304606F0EDFB18B9BAF1000F1D
:2022EC0003D103E001275D4630E0554645B12A683046294606F0DEFB38BB002A1546F6D12A
:20230C000398314607F0CCFB051C02D0A9451AD1E5B9D9F80C10D8F80450087B00F00F00E4
:20232C00022813D1087BC01140080FD2002D4AD1D4F8800050B1D4F8801030463A4606F029
:20234C00B9FB18B93FE0082700E00227BB46BBF1010F04D104F1700049460AF018FFBBF152
:20236C00020F0BD12F682A6804F170001FB949460AF0FCFE02E049460AF0E7FEBBF1080F68
:20238C0004D196F83E1028460BF0B2F83BF0080004D104F1700031460AF0E8FE1BF1030F8B
:2023AC0011D096F83F00B6F93CB0009940F0800086F83F00019F87F8A410206F86421AD1AD
:2023CC0007F0A0FB17E0B4F98C0000F6FF706FF31F30A4F88C0003E07F1E1846FFB237E744
:2023EC0094F8040140F0040084F8040101986FF0020BC4F8F80002980CF059F9584605B097
:20240C00BDE8F08FF80D0020FFEFFF9F200D002000B5ADF11C0D0191009002A80CF032F91F
:20242C0003208DF808004FF0804002A907F010FE7B4908607A48006830B1794800680021B0
:20244C0000224AA30AF0EAFB7748784905F028FA744908607348006810B94CA00BF0FEF9FC
:20246C0006F0BAFDE0B108F0B9FF002009F0EEFD0CF085F8002007F09BFC09F06DFE09F0DA
:20248C0095FC002008F022FE0AF0A8FC07F072FA09F0E4FB0BF06CFF012009F0A3FC02E08D
:2024AC0045A00BF0DBF94FF4803001214FF47F6208F050F95E480BF0E1FC0CF05BF85F486E
:2024CC005D495C4A0068B1FBF0F110680CF059F9584800680BF000FC5A485B4905F0E0F9D6
:2024EC00574908605648006810B93AA00BF0B6F95348564900680BF01DFF10B13DA00BF023
:20250C00ADF95348006800214FF0FF324FF0FF3303F0E0FD03900398400820D305A806F028
:20252C00E9FCBDF8140007F013FC0490049809F0E5FC484908800A200BF064FC00220021F0
:20254C0000B1012101B90122364800680A2109F0D9FB4048008807F071FA06F029FB0398BA
:20256C008008CED306F024FBCBE7C04657616974696E6720666F722053434520414443201C
:20258C0072656164696E672E2E2E00C04572726F7220696E697469616C697A696E67206254
:2025AC006F61726420332E335620646F6D61696E2070696E730A00C04572726F7220696E22
:2025CC00697469616C697A696E672073656E736F72730A004572726F7220696E69746961DC
:2025EC006C697A696E6720627574746F6E2070696E730A004572726F7220726567697374EA
:20260C006572696E6720627574746F6E2063616C6C6261636B2066756E6374696F6E00C04A
:20262C00381F0020341F002014200020BC3A0020A9CF00002C1F002080C3C9014C300100CD
:20264C00301F0020FC1F0020883A002099C10000241F0020281F00202DE9F84F0746874845
:20266C00DFF80C8235380068800880F0F2800AF029FB864908310B6800251C17641C990D93
:20268C000AD2C0F13E0110F10A0F4FEAE101D8BF08218C42B8BF0C1CDFF8D8E1990E0FD2E8
:2026AC00590E0DD37246143A1168C1F304211629A8BF20391268C2F30462162A0EDB0CE0C6
:2026CC00684AD2F87C11C1F304611629A8BF20391268C2F30442162A00DB203A09199346E8
:2026EC00162905DA11F10A0FB8BF6FF0090100E015215D4C5D4E01F01F0242F4F852228017
:20270C00326812F0030F18BF0125D20828BF45F002050FB145F00405424692F90740041B8E
:20272C00052C04DA9479AC4208BF918870D00F28A0F10F0A2BDB0AEB0014A4F1F00A4FEAAB
:20274C002A29B9F1070F88BF4FF007094E46062E88BF06265EF82670042404EB8604764640
:20276C0034594FEA9508E41B04F0FF06EF0824BFC4F307273E444FEA550CAF0824BFC4F3C6
:20278C0007473E446F0828BF06EB146605E000264FEA95084FEA550CB1465EF829E05FEA7A
:2027AC0058070EF0FF0424BFCEF307273C445FEA5C0724BFCEF307473C446F0828BF04EBF0
:2027CC001E64B6B2ABEB0101AAEB09277E43002906F1800604EB1624D8BF012103F0FF0368
:2027EC0034264E43B1B259434FF6FF73B1FBF4F18B4238BF191C802889B2918005DA10F1CE
:20280C00800FB8BF6FF07F0000E07F20D0719571194800681F2910604FF0000008D340F235
:20282C00FF128A4206D24908401C8A42FBD301E01F219180124F114E0F39090940EAC10059
:20284C0047EA0001C6F8FB1F0025C6F8FF5FBDE8F88F0C490C4F424608200F60921D1070F7
:20286C00BDE8F88F3C1100506E62084024220840602000209C13005008200940350009404F
:20288C0000E7A48030100940FDFDA400AC3F00502DE9FE4F0E46054630686C68D5F808B0CC
:2028AC00F8B1B7680FB97368DBB194F894100020012908BF0120384202D17168084205D06E
:2028CC00012080F00100C0B201280AD10BF017FF8146D4F8880038B148460BF0E8FE03203D
:2028EC0030740020BDE8FE8F4FF0010886F81080C4F8886000200290C4F88C00C4F8900096
:20290C0048460BF0D4FE94F8AC0038B194F895206B49D4F8A400114309F0D8F977680BF0D2
:20292C00EEFE824694F8E00070B917F0704F06D12FB1042009F0DCFD062009F0D9FD0220B8
:20294C0009F0D6FD84F8E08050460BF0B0FEDBF80010486840F0020048602078002840F027
:20296C008880DBF81C003168884240F28280207B18B16068B0F1FF3F7BD148460BF097FE48
:20298C00B0685D4600280CBF04F1AE088046706828B9E88904F1AE07A4F8AE0000E00746C1
:2029AC00606909282CBF02200120D6F800900190B9F1000F30D0DFF80CA16069092810D3DA
:2029CC00DAF800004268398828689047DAF80000C268286869469047BDF80000A8F80000E0
:2029EC000FE0DAF800004268397828689047DAF80000C2682868694690479DF8000088F821
:202A0C000000B3680BB10198804473680BB101983F18B9F10109D0D12968C8684008FCD3C2
:202A2C00DBF80010486820F00200486077680BF066FE054694F8E00078B117F0704F06D182
:202A4C002FB1062009F06EFB042009F06BFB022009F068FB029884F8E00028460BF027FE7D
:202A6C000298D4F888100874C4F888000120029022E02046594602F055FFDBF800104869F8
:202A8C0040F00100486120780028EFD1616804F16C0006460BF091FA0028E7D0D4F88800A1
:202AAC00017C012904BF03210174284603F06CFC029930460BF081FA0298BDE8FE8FC046E5
:202ACC0000000680C401001030B5ADF12C0D0691059001A80BF06EF901A8FEF7B1FA10B192
:202AEC005EA00AF0BBFE01208DF81C009DF81C00C8B1082004F032FB0BF046FC0BF04AFC66
:202B0C004008FBD36D480068406801460220884769490870684800780028EFD00BF02EFC38
:202B2C00082004F061FA64480121012203F0FAF810B150A00AF092FE5F48614900780870C0
:202B4C006049022008700AF045FC5F4908605F48006800214FF0FF324FF0FF3303F0BAFA23
:202B6C0008900898400845D30AF034FC099056480999006888420ED2534A5649544B099820
:202B8C001568554C09681A68401B4143B1FBF4F012181A600DE04C484E494D4B099D4E4C15
:202BAC00006809681A68401B4143B1FBF4F012181A600998444908600BF0F2F84749088008
:202BCC0048484749008808800F200BF011F90022002100B1012101B901224348027014225F
:202BEC003B49374800923D4A006809681268022301F0D6F90898800811D33C48007858B164
:202C0C003B49032003F07EF93A48002100F090FD10B121A00AF022FE00200AF03BFB0898EB
:202C2C00C00813D33148007840B93448324900780978884202DD06F023F907E02B48007873
:202C4C0020B922480068102106F036FA08984009FFF47DAF01200AF01DFB78E7456173793A
:202C6C004C696E6B5F696E6974206661696C656400C046C0456173794C696E6B5F656E61A9
:202C8C00626C6552784164647246696C746572206661696C656400C0456173794C696E6BE5
:202CAC005F726563656976654173796E63206661696C656400C046C02F3A0020CC01001017
:202CCC000820002009200020641F0020581F00200C2000204C300100A086010010200020DD
:202CEC000A200020601F002012200020681F0020803801007D730000D0180020D11800202C
:202D0C0000B5ADF1140D8DF8080004208DF809007048007810B17048007808B10120D6E043
:202D2C009DF80800042809D09DF80800052805D09DF80800062801D00220C8E06748B0F988
:202D4C000000002801D40920C1E065480068002103F0BCFF08B90920B9E09DF80800042870
:202D6C0003D09DF8080005286ED15E4940F6080008805D49087820F00F0008705A4908781E
:202D8C0040F0800008705949002008605849087840F002000870584856490068086054485F
:202DAC005349007820F00C0040F0080008709DF80800042809D151494FF6FF7008804C4919
:202DCC00087840F00100087008E04C494AF6AA2008804749087820F00100087048484849F5
:202DEC00007820F00F0040F001000870464B02204FF0E2418DE8030042483A490068002263
:202E0C0004F050F9354908800020ADF80C000FE03E48006842F21071B1FBF0F006F084F901
:202E2C00BDF80C00411CB0F5FA7FADF80C1003DC374800880228EBD135480088022844D179
:202E4C0000208DF8090040E0324940F6070008803149087820F00F0008702F49087840F09F
:202E6C00800008702D49002008602D49087840F0020008702A49087840F0040008702A489F
:202E8C0028490068086029482849007820F00F0040F0010008701C4B02204FF0E2418DE863
:202EAC00030018481B490068002204F0FBF80B4908800A48B0F90000002803D400208DF853
:202ECC00090002E004208DF809009DF8090005B000BDC0461A3A00201B3A00202C3A0020C4
:202EEC00041F00206C39002078390020743900207A390020803900208C1D00207C390020D6
:202F0C007F390020001F002045CA00004C3001006E390020D0390020DC390020D8390020AC
:202F2C00DE390020E0390020D81C0020DF39002001282DE9FE4F40F0EE80DFF810B2DBF833
:202F4C00DC00012840F0E4800220CBF8DC000AF057FD012009F034F95FEA000805D001202F
:202F6C00CBF8DC000AF058FDD7E00BF0DEFB6C49029000200860012009F0C4FC012818BF23
:202F8C00002003D1002006F021FE0120654900900020654F0860386811200BF0D7F900289D
:202FAC000CBF0024012410200BF0D0F908B144F002040F200BF0CAF908B144F004040B20FD
:202FCC000BF0C4F930B1624814300068574E016B308888470A200BF0B9F9002600B1012689
:202FEC004FF0805A0AF5DC75301C04D02868504E016B308888474F4801260660286881697D
:20300C0044F0200088474C4806600BF099F900F001010191400814D248480BF033F98146CA
:20302C00B9F1040FF8D0B9F1010F05D1DAF8D80142684248032190474149086820F0030088
:20304C0008600020FFF708FB2B683868986B8047019801280DD0B9F1010F05D1DAF8D8010C
:20306C0042683648314690473549086840F0030008602C48066028684169204688470B20D1
:20308C000BF064F920B12868284BC16A188888470A200BF05BF920B12868254BC16A188849
:2030AC0088472448032206602349CBF8DC2000230B602868416B204688470128F9D1386881
:2030CC00042009F07DF8044615481E490660386808688009FCD30098012802D1304606F076
:2030EC0075FD0BF01BF9082009F06AF807460298CBF8DC6009F01AF91348008806F068FA93
:20310C000AF08AFC57EA040018BF4FF0FF3804E06FF0040801E06FF001084046BDE8FE8F41
:20312C000C400940000222432C200940EE280100EA280100282008608001044300400340CD
:20314C002422084014100940082E010094310020A401001010B5ADF1300D079005208DF8B6
:20316C0026006F48007810B16E48007808B10120D3E00798007B802801DD0220CDE06A4851
:20318C000068002103F0A2FD08B90920C5E067480078E0B1664907980978007B4018801C83
:2031AC0000F0FF0040F4C050ADF82800614902200870BDF82800604900F0FF000870BDF81D
:2031CC0028005E4900F47F40001208700AE0594901200870564907980A78007B5649801840
:2031EC000870FFE75348524A534B079900781278C01804F0E3FC4F494D48079A0C784E4B58
:20320C0000780799127B00190D31C01804F0D6FC474A079847491378007B0A784849C01857
:20322C0080180880444847490860079806F020FE089007988068C8B143484349007820F0F4
:20324C000F0040F0020008703F49087840F08000087007983D49806808603C480899006877
:20326C004FF47A6202FB0100049014E03649087820F00F0008703449087840F080000870E2
:20328C0032490020086006F033FD08994FF47A6202FB010004902E48007888B101208DF8DA
:2032AC0014004FF0E24102208DE8030029482A49006804AA0023FEF767FFADF824000DE0C4
:2032CC0002204FF0E2418DE803002248224900680122002303F0E6FEADF824001D48BDF9A8
:2032EC002410006802224FF0E24303F053FB02AA82E8030002A890E80C0002210020114082
:20330C00184000D1002902D000208DF826000648006806F00DFE9DF826000CB010BDC046B1
:20332C001A3A00201B3A0020041F00201C3A0020183A0020193A0020A41A0020A51A00203D
:20334C00841D0020901D0020801D00207C1D00201E3A0020001F0020741D0020774A2DE91E
:20336C00F84F074621F00040884682420AD9744981422ED957A20CCA4146384600F0BFFAE3
:20338C00BDE8F88F6F4A0FF2541982420AD8C0F3130057EA000601D1080816D238460B4682
:2033AC000246EBE74FA20CCA384605F0B8F998BF0FF2381905D94FA20CCA384605F06CF9D6
:2033CC0007D80BF0BEF92221016099E80300BDE8F88F4AA696E80C004146384600F08FFA04
:2033EC0005464FF4002202EB0532120D140596E80C0000F07FFA0B4602464146384600F034
:20340C0079FA514B803505F0FF056A0003EBC20595E88001561C03EBC6030CCB00F06AFA72
:20342C004A4D8A460646A54203DD49496118894602E04848201881464146384653463246A5
:20344C0002F076FB2FA200900CCA8B465146304602F06EFB2DA20CCA00F051FA534632469C
:20346C0002F066FB2BA20CCA00F049FA5346324602F05EFB29A20CCA00F041FA53463246DE
:20348C0002F056FB27A20CCA00F039FA024600980B46594602F04CFB0B4602464146384674
:2034AC0000F02DFAA5420BDCB4F1804F05D10B46024600F024FA1DA207E04B46002205E0EC
:2034CC004B46002202F034FB1AA20CCA02F030FBBDE8F88F000000000000F03F0000000002
:2034EC00000000000000000000009040000000000000F07F0000000000CC90C00000000065
:20350C000000B842745C870380D8553F0004F788ABB2833FA6A004D7086BAC3F75C582FF83
:20352C00BDBFCE3FEF39FAFE422EE63F000000000000E07F000000000000700100009040A1
:20354C000000903C0000F07FC0E70000000030C00000707E0000F03F2DE9F0430446654830
:20356C000E4601681F461546ADF12C0DBEB1B5B130784FF0010808FA00F001420FD01046BC
:20358C0000210BF0C8F8A56066600BF0B8F85A4D81462878022804DB48460BF088F800208D
:2035AC00A5E0002861D102F023F85449086840F00200086007A80AF07DFD514E5149707828
:2035CC0007AA099005F5847008F0EEFA4E4905F59E7007AA08F0E8FA07A80AF023FD19219A
:2035EC0007AB3078494A089005F1380008F008FA474A05F154001A2107AB08F001FA4549C9
:20360C00002205F19000134607F076F94249002205F1B400134607F06FF9404A05F1240084
:20362C000421002309F08AFBB078012802D10E2003F094FD05F178000AF0C6FB05F1700053
:20364C000AF0C2FB002085F820002875E861072185F8D01185F82100314B1870A8600526A9
:20366C00E860304A2E612878AA6105EB8001401CC1F8D840C0B2287048460BF018F81FB929
:20368C0068460AF0C9FB6F4638684FF4FA76E6602060B86941466062388A6175E0827868A0
:2036AC0000280CBF40F6C410002120611E48E06120622175A061F86800B1E061786900B1BB
:2036CC002062B86800B1A061782204F13000002105F0B0FA04F14800002109F06BF91349F4
:2036EC00002204F18000134607F006F920460BB0BDE8F083D4210840200D002000200940AC
:20370C00882F010055DA0000416B000071A10000758F000041D2000001D60000F5A900006C
:20372C0076200020F95F0000CB680000A3E6000000B5ADF1240D0691059006208DF8200038
:20374C005848007810B15848007808B10120A7E05648B0F90000002801D40920A0E0544882
:20376C000068002103F0B2FA08B9092098E00598504908605048079007988921C1800798BD
:20378C00002101714D49079808604D49002008604A484C4908604D484B490860069880B1E0
:2037AC004B484B49007820F00F0040F0020008704749087840F080000870069845490860C9
:2037CC000CE04349087820F00F0008704049087840F0800008703F49002008603E4800681F
:2037EC00A0B13E483D49007820F00F0040F0020008703A49087840F08000087006F078FA8C
:20380C003549374A0968401810600FE033483349007820F00F0040F0010008702F49087846
:20382C0040F0800008702E4900200860274800210C2205F0FFF92B480078A0B101208DF8C8
:20384C000C00274800680290294B4FF0E24102208DE8030024482549006802AAFEF794FC04
:20386C00124908800DE002204FF0E2418DE803001F4B1D481D490068012203F013FC0B495A
:20388C0008800A48B0F90000002803D400208DF8200003E00648006806F04AFB9DF820004C
:2038AC0009B000BD1A3A00201B3A00202C3A0020041F0020F81E0020741900205820002059
:2038CC005C200020F01C0020F41C002038200020D41C0020D01C0020203A0020E71C0020B3
:2038EC00E81C00201E3A0020001F0020C81C0020B93A00002DE9FC4F83F0004301E02DE9DC
:20390C00FC4F1F03FF0847EAD2574FEA42284FEA43095FEA595906D147EA080A1CBF002194
:20392C000020BDE8FC8F57F000575FF4E06E1EF1FF0EF14505D14FF00000190D0905BDE8AC
:20394C00FC8F002B05D55FF0000AD8F100086AEB07070C03E40844EAD0544FEA40254FEA1A
:20396C004106760D08D144EA050A19BF00210020191C101CBDE8FC8F44F00054764504D199
:20398C000020090D0905BDE8FC8F002904D55FF0000A6D426AEB0404B6EB090E08D5A246C3
:2039AC003C465746AA464546D046CEF1000E4E46BEF1360F5CBF4FF0000B23E0BEF1000FD0
:2039CC0004BF4FF0000B1AE0CEF1390ABAF120092EBF08FA09FB07FA0AFB4BEA080BDEF1EE
:2039EC00200A07FA0AFA38BFBA4647FA0EF72DBF28FA0EF8AEF1200E4AFA0EF8D04415EB10
:203A0C0008057C4154EA050A02BF00210020BDE8FC8F002C58BF4FF0000A06D55FF0010A90
:203A2C005FF0000E6D426EEB0404A6F101066D006441FAD515F4806E11D005F480794BEA8F
:203A4C00090B15F5806554F1000428BF761C0BD205F400795BEA090B08BF25F4006525F48F
:203A6C00E0656D0044EB0404B61CDEBF00210020BDE8FC8F5FF4E06E1EF1FF0E76450AD31C
:203A8C004FF0000013F00043FF21C900C91D09051943BDE8FC8F270547EA1530210B41EA33
:203AAC00065141EACA71BDE8FC8F704700B5ADF1140D8DE80C00ADF81010029006208DF85F
:203ACC001200534803909DE80C0002210020184001EA020100D1002978D04E48006806F04A
:203AEC0027FA4D494FF0FF3008804C480088B0F5505F5DD103980079032803D006208DF8B2
:203B0C00120079E046480088012808D045480078C011400838D344480078012834D144492F
:203B2C0003980A78007A4149801A08704148007818B141490220087002E03F490120087055
:203B4C003D483B4A03990078127809183B48083104F034F8384B3648344A03991B7800788E
:203B6C001278C91809183648083104F027F83648344990F90000087035483449006808601D
:203B8C0000208DF8120037E032480078012803D108208DF812002FE02F480078012803D1A2
:203BAC000A208DF8120027E006208DF8120023E01A48008843F20141814203D107208DF8CD
:203BCC00120019E006208DF8120015E09DE80C004FF0E2400021184001EA020100D10029C9
:203BEC000AD00C48006806F0A3F90B494FF0FF3008800A208DF812001848006830B117487E
:203C0C009DF81210006802460C48904705B000BD74190020041F00202C3A0020CA1C002018
:203C2C0038200020D61C00203C200020201A0020183A00201C3A0020193A00200C1A002077
:203C4C00211A0020141A00203F200020181A0020402000203E2000203D200020F81E00202D
:203C6C002DE9F04FADF1240D079001F0C1FC5F48007808F0DDFB5E4D0024012806D90C38C5
:203C8C0004D0401E0ED0401E09D006E009F040FE022804BF01210C1C06D0696805E00521CB
:203CAC001F2401E0032107246960524A1068C0F38150012806D152F80C0C0127020E07FA89
:203CCC0002F004430AF0DEF905F1440AFF2253464018401E471C28607F1E03F8012BFBD19F
:203CEC00079A1268002602F0FF03FE2B1DD0DDF81CC0964633460EF0FF07FF2F0ED0B8425D
:203D0C0005D3B94203D80122BA40144201D0022069E016430EF0FF020AF802305CF804EF67
:203D2C005B1C0EF0FF07FE2FE7D1092003F016FA07980121A86005F1280008F03BFE0027AC
:203D4C004FF0010BB9462846804600F198050BFA07F0044216D1064204BF07F0FF0141F4EB
:203D6C00C04104D01AF80700079951F82010224801F0C8FCF8B24FF0FF3109F091F8C5F8B9
:203D8C00009001E004202860D8F800007F1C2D1D8742DCD904A80AF045F9184C184A207885
:203DAC00102104AB059008F10C0007F029FE68460AF080F9CDF80C906A4660681149029079
:203DCC0008F1640007F0F0FE0F4951F80D0C20F4F85040F4005041F80D0C0C4FC1F8FFBFD7
:203DEC004846C7F800B009B0BDE8F08F7720002080300020B43F0050007FC767B42F010082
:203E0C00E5D500008DB700000D300940080009402DE9F843614C5A4D5A4EDFF870815E4FFF
:203E2C0094F8E4100846401E0B2864D8DFE800F07B2C43062343062343067664042907D07E
:203E4C0001220A2945F8212C14BF0220032004E0202045F8210C0120024684F8E2000020E9
:203E6C0045F8390C0827C5F8FF7FC5F8F37F45F8392CBDE8F883052914BF092006200027E2
:203E8C0084F8E400376075E094F8E170383D0120002FC5F81B0004BF0620002102D0002153
:203EAC00F160032084F8E400032045F8010C3160306880085ED294F8E41033480127032985
:203ECC000ED00068456800216022052300914046A84794F8E400062814BF0A200720CFE79A
:203EEC0000684568002160220523022000904046A8470420C4E7FEE72548264F00260125CD
:203F0C0006600E203D6003F06FF8022008F00AF984F8E45084F8E360BDE8F88300203860A6
:203F2C000C25786024E04FF08059D9F8A0010168202088472C3D0F2045F8010C41F61D56DA
:203F4C00C5F80360D9F8A401466800214FF4C0720723022540460095B047D9F8A401C66874
:203F6C0000214FF4C07207234046B0470120386084F8E45004F178000AF0BBFBBDE8F88352
:203F8C0039400C4038600C40A401001000A00C402C500C4004800C4034600C40943100206E
:203FAC0007B401B400B5ADF1040D8DF8003045490020087045484449007808704548444922
:203FCC000078087045484449008800F47F400012087042484249008800F0FF000870424878
:203FEC004049008800F47F40001208703E483F49008800F0FF0008703E483D49006800F006
:20400C007F40000E08703B483B49006800F47F00000C087037483949006800F47F40000AC3
:20402C00087034483649006800F0FF000870364834490078087035490C20087034499DF813
:20404C000000087033490698086033490020087006984FF47A614143032001F053FF19483F
:20406C00FFF778F810B108A009F0F8FB2B480021FFF75EFB10B10BA009F0F0FB01B05DF840
:20408C0004EB04B07047C046456173794C696E6B5F7472616E736D6974206661696C65643E
:2040AC0000C046C0456173794C696E6B5F726563656976654173796E63206661696C656449
:2040CC0000C046C0401800204D180020082000204E180020092000204F1800200A20002029
:2040EC0050180020511800201020002052180020531800200C2000205418002055180020D9
:20410C005618002057180020122000204C180020D1180020D4180020D01800207D73000093
:20412C002DE9F84F064693460868DBF8005007784FF000081C46C246421C242F0A602DD115
:20414C0010F8017F531C532F0B6027D1ED1C25F003052D1D55F8040CE061CBF80050208BAB
:20416C000090A168E26930685B46FDF7F7FC8246306848B1A068002803DD5045D8BFA0F109
:20418C00010A306850443060DBF80050206846464FF00108E660A0EB0A002060662F06D007
:2041AC00B8F1000F64D1E16901200F705FE0208B40B9ED1D25F007050835A5F1080090E8BB
:2041CC00000309E0ED1C25F003052D1D55F8040C07F078FE804689462AA20CCA4946404661
:2041EC0004F05AFA28BF002705D2206989F000490127401E206125A20CCA4946404604F08E
:20420C008EFA31D3404606F085FF064608F01EFB0B46024649464046FFF76CFB1DA20CCA09
:20422C0001F086FC07F01EF90146606904220A2305F058F8401EE0612E2101706369226993
:20424C00E06931461B1AE360D21A0A2305F04AF8002F08BFE06104D0401EE0612D21017061
:20426C00E0696169081A02E004A0E0610720E060CBF800505046BDE8F88FC0462865727283
:20428C006F72290000000000000000000000C0FFFFFFDF41000000000088C3402DE9FF414A
:2042AC0004466668A7680D460AF029FA3178012903D10AF0FCF9002090E0012131700AF078
:2042CC00F6F9287870706878B07068687060A868B060E868F06028693061287D3075687DB2
:2042EC007075A87DB075A869B061287F3077687F7077A87F4FF0000843461D4686F82851F4
:20430C00B07786F82951C6F82080336375627563B562B56386F82C5086F82D50786802F0D9
:20432C001DFF204603F076F9204603F095FC70B92C480068C16838688847786802F054FEE2
:20434C000AF0DDF935700AF0B2F92C4645E0684609F068FE0094387B234A0190B9686B467C
:20436C0006F17C0007F04CFB684609F0A3FE00941E4938696A46029006F1980007F014FCC4
:20438C00B07830B906F1CC00294608F013FB18483061707830B906F1E800294608F00AFBBB
:2043AC001448F06068460AF0C7F801958DF800501149029406F582700A226B4606F09CFA2D
:2043CC00B969FA6906F13C0009F0EEFD0B4A06F168000421234608F0B1FC20460090BDE8B3
:2043EC00FF81C046D001001005480000FD9F00007DE6000035E6000041B2000011E20000FD
:20440C00B0B5456884684F48297BADF1180D012916D0217E627E4C4B2F7E0143009143EABF
:20442C0002010191494937F0010718BF081CA27E1043029095F895000322FF2811D00DE0DE
:20444C00677E217E3843A37E019041F00041009143F000403E49029095F895000143042284
:20446C000391FE204DF82200694605F1980003F017FAC5F8A400002808BF00205FD0287B94
:20448C00344951F8200001282BD02068B0F1804F14BF22220A22217ED5F8A40008F010F8BB
:2044AC002068B0F1804F14BF21220922617ED5F8A40008F005F82068B0F1804F14BF242261
:2044CC000C22A17ED5F8A40007F0FAFF95F89510FF2933D02068B0F1804F14BF23220B2288
:2044EC0028E02068B0F1804F14BF21220922217ED5F8A40007F0E4FF2068B0F1804F14BFBA
:20450C0022220A22617ED5F8A40007F0D9FF2068B0F1804F14BF24220C22A17ED5F8A40031
:20452C0007F0CEFF2068B0F1804F14BF23220B2295F89510D5F8A40007F0C2FF012006B03C
:20454C00B0BDC046000480A0004000800004C0A000200080142A01002DE9FF470646880F76
:20456C00C0F09780002006F0CBF84B4809F092FD012008F02FFE494C40F60A09A4F8009024
:20458C0000256580207B05F00F0120F00F00014321736560607B4FF0010808F00F0720F068
:2045AC000F0047EA00013046617304F009FFD6F808A04A462146D01F574600F1010C00E091
:2045CC0027467C6834B123889A4203D0984218BF9C45F5D179607A7B334C05F00F0322F081
:2045EC000F0213437B73236F33B1DA681288904224D06046904221D0338E03B3756306F193
:20460C003002558096F83C0005F00F0320F00F00034386F83C3096F83D0008F00F0320F082
:20462C000F00034386F83D304A60487B05F00F0620F00F0046EA00054D7300E0A560504628
:20464C00694602F03DF9684609F004FD09F0EEFB1348A06194F8210070B9404608F052F9F2
:20466C0001280FD0787B08F00F0120F00F00014379730C4EA66105E007F03CFA0028FBD076
:20468C000AF04BF8504609F005FD5146404608F02BFC0090BDE8FF8701010E046C1F00208A
:2046AC00DD160000A5A90000200D00202DE9F04F04466568A6688846ADF11C0D0AF01FF840
:2046CC0095F8DC10012903D109F0F1FF002085E04FF0010B85F8DCB009F0E9FF706802F0EA
:2046EC003DFDD8F80C00676828B9A06890F814A090F8159003E090F800A090F80190BAF1A8
:20470C00FF0F15D0B9F1FF0F12D0364941EA0A000490FE23069341EA090107F198000591A3
:20472C0004A903F0BDF8C7F8A400D7F8A40050B909F0E5FF002485F8DC4009F0B8FF706817
:20474C0002F052FC49E051460D2207F0B9FED7F8A40049460E2207F0B3FE98F8000028706E
:20476C00D8F80400686098F80800E860684609F059FC307B00946B46B1681B4A019005F1C0
:20478C00100007F03DF9684609F094FC306900946A461649029005F12C0007F005FA05F1BD
:2047AC006000594608F006F9287830B905F17C00002108F0FFF80E48686000202872C5F857
:2047CC00BC00C5F8C000204606F072FA094A05F1C8000421234608F0B1FA204607B0BDE8C8
:2047EC00F08FC04600200084A9520000A59400001DE6000021E100002DE9F84F8046D8F858
:20480C0008603068D8F80450076CDFF830B14764AB6B6A6C286C17F4F06F1946A0EB0209B3
:20482C0034D1F8091ED2780974D3B1B196F821205846801D845C601E814294BF1C1C641E14
:20484C004046214607F022FBA86B001BA86361D105F19800012109F06CFF4046494607F0C0
:20486C008FFE57E00029F8D0404607F00FFB95F82D10A86311B900284CD101E00020A86300
:20488C0005F19800012109F054FF43E0F80A20D24FF0000A544602E0AB6B5B1EAB6393B153
:2048AC004046012107F0F2FA3068446814F00F04C0F804A0F0D0286B401E2863686B401E3D
:2048CC006863A86BE8B905F19800012109F031FF13E0306844680022202904F00F04426029
:2048EC00CCBF4FF0200A9A464046514607F0CEFACAF120008145C8BF81464946404607F001
:20490C003FFEEC77404606F074FB726A12B1404621469047B8090FD3A96A69B10F464046F2
:20492C0007F05CFBA86238B996F820205946895C4046C91906F0D0F8BDE8F88F60290100F4
:20494C002DE9FC4705466E68D5F8088037780FB1B76B1FB14FF0FF30BDE8FC8731630024CD
:20496C00F477171C74631BD006F13C0909F0C7FE82466946484607F062F800281ED45046CB
:20498C0009F095FE9DF80000316B0870306B736B7F1E00F10100306303F101007063E5D1BD
:2049AC007078726B316B0128A1EB0201316303D1F36828469847726B144659E0B763D8F868
:2049CC000010086B40F400700863D8F80010886B40F4FA608863504609F069FE06F59470F8
:2049EC0008F088FC707806F5947768BB09F087FE96F82D1069B1716B59B1B16B49B1B463A8
:204A0C0009F055FE06F5947008F064FC706BBDE8FC8709F04CFE716806F1E805284609F07D
:204A2C00CCFA0028F2D0B4632846214609F0C5FA0028EBD0384608F04DFC1027716B306BC6
:204A4C00F777401A3063E1E709F059FE96F82D1061B1716B51B1B16B41B1B46309F027FED9
:204A6C0006F19800012109F064FE01E009F01FFE2046BDE8FC8770472DE9FE4F0CAF1D4661
:204A8C008B465FEA02083E78009014BF4FF080494FF0005909F033FE0324DFF800A10190D3
:204AAC00BBF1FF3F14D152460098D2F8801009F0F9FA50B9D2F88410009809F0F3FA002898
:204ACC000CBF176FD2F8847008E0D2F8807005E000985946002207F02BF80746002F56D01F
:204AEC0097F83F0030F07F0050D05446D4F88000B84217D0D4F88400B84213D000982A4621
:204B0C003346394603F004FB00283FD0207D01283AD0207D042837D0214904F5847009F078
:204B2C0008FE31E0D4F880004B46002207F01EF8D4F884004B46002207F018F8B8F1000F84
:204B4C0014BF1848184808F0D1F8B6B1D4F8800000224FF0807307F009F8D4F88400002284
:204B6C004FF0807307F002F83869C4F8F80094F8040140F0010084F804012DB1216F009868
:204B8C002A46334603F0C4FA832400E00424019809F08DFD2046BDE8FE8FC046200D0020B9
:204BAC000200004001000204010001042DE9F041424C464D8046C8F38140401E02D0401E62
:204BCC002DD028E0284620300168880C23D24FF4804020603A48D0F802204B0AC1F30337E2
:204BEC0003F0800322F08F02134347EA0302C0F80220D0F80120C1F3032622F00F0246EA11
:204C0C000203C0F80130026801F0E70722F0E70247EA020102E04FF00041204601602D4E7E
:204C2C00301D0068C0F3C0070FB94020A0624FF40070206409F016FA40F0300084F8C8002B
:204C4C00C8F3815040B3401E03D0401E1FD002211EE0012007F056FE07460420394604F0DA
:204C6C00E7FF042007F04EFE8742FAD1361F366826F07F4007F00CFC12480068036807212B
:204C8C004FF06022300E98474FF4806020600321042004F0CDFF06E00420012104F0C8FF98
:204CAC00094807F0F5FB2846094F006800F03F0084F8CB0F3868BDE8F081C04640A00C4015
:204CCC000A600840B4010010BD3786006C1300502C200940AC3F0050ADF1300D464800903F
:204CEC004648019035200A90009850F8041B00900291009850F8041B03910090009850F875
:204D0C00041B04910090009850F8041B05910090009850F8041B06910090009850F8041BF9
:204D2C0007910090009850F8041B08910090009850F8041B099100900198011D019102990A
:204D4C0001600198011D0191039901600198011D0191049901600198011D01910599016011
:204D6C000198011D0191069901600198011D0191079901600198011D0191089901600198B0
:204D8C00011D0191099901600A98401E0A90ABD1009850F8041B00900291009850F8041B1D
:204DAC0003910090009850F8041B04910090009850F8041B05910090009850F8041B0691E4
:204DCC0000900198011D0191029901600198011D0191039901600198011D01910499016065
:204DEC000198011D0191059901600198011D0191069901600CB07047C0F7000000C000210B
:204E0C00ADF1300D464800904648019035200A90009850F8041B00900291009850F8041B5E
:204E2C0003910090009850F8041B04910090009850F8041B05910090009850F8041B069163
:204E4C000090009850F8041B07910090009850F8041B08910090009850F8041B099100903E
:204E6C000198011D0191029901600198011D0191039901600198011D0191049901600198BB
:204E8C00011D0191059901600198011D0191069901600198011D0191079901600198011D0D
:204EAC000191089901600198011D0191099901600A98401E0A90ABD1009850F8041B009061
:204ECC000291009850F8041B03910090009850F8041B04910090009850F8041B05910090C7
:204EEC00009850F8041B069100900198011D0191029901600198011D01910399016001985C
:204F0C00011D0191049901600198011D0191059901600198011D0191069901600CB07047D3
:204F2C0074FE000000C00021ADF1300D464800904648019035200A90009850F8041B00907C
:204F4C000291009850F8041B03910090009850F8041B04910090009850F8041B0591009046
:204F6C00009850F8041B06910090009850F8041B07910090009850F8041B08910090009818
:204F8C0050F8041B099100900198011D0191029901600198011D0191039901600198011D32
:204FAC000191049901600198011D0191059901600198011D0191069901600198011D01917B
:204FCC00079901600198011D0191089901600198011D0191099901600A98401E0A90ABD117
:204FEC00009850F8041B00900291009850F8041B03910090009850F8041B049100900098A4
:20500C0050F8041B05910090009850F8041B069100900198011D0191029901600198011DD5
:20502C000191039901600198011D0191049901600198011D0191059901600198011D0191FD
:20504C00069901600CB070472805010000C00021ADF1300D464800904648019035200A90BB
:20506C00009850F8041B00900291009850F8041B03910090009850F8041B04910090009823
:20508C0050F8041B05910090009850F8041B06910090009850F8041B07910090009850F84A
:2050AC00041B08910090009850F8041B099100900198011D0191029901600198011D0191E5
:2050CC00039901600198011D0191049901600198011D0191059901600198011D0191069950
:2050EC0001600198011D0191079901600198011D0191089901600198011D01910999016062
:20510C000A98401E0A90ABD1009850F8041B00900291009850F8041B03910090009850F848
:20512C00041B04910090009850F8041B05910090009850F8041B069100900198011D01918B
:20514C00029901600198011D0191039901600198011D0191049901600198011D01910599D3
:20516C0001600198011D0191069901600CB07047DC0B010000C00021F8B5474C241F04F1C5
:20518C007005286800260746E0B1D4F88400F0B9D4F88000E8B1D4F88010386909698842E3
:2051AC0015D197F83F00400911D3D4F88000C06840880028F9D0D4F88000C0684088012870
:2051CC00F3D006E004F58470022109F0B2FA002E5ED060683969884254D1684605F030F9E4
:2051EC0058B1009848B1D4F8800030B9D4F8840018B9082006F0BEFDF8BD082008F008FA03
:20520C0097F83F0004F58476C0F3001028B9284607F08AFFC4F8800004E0284607F084FF27
:20522C00C4F8840007F1180003C81A49C4430B1F1C601A681042FBD10A6810430860F86909
:20524C00C04341F80C0CF86951F8082C104341F8080CF868044607F049FD2088A0F6020049
:20526C0040B141F21E01401A04D041F6E671401A012803D80120214607F036FE4FF0804112
:20528C00304603E004F584704FF4806109F051FAF8BDC04614100440240D0020B0B54349EF
:2052AC00446809688068496800688847424D012205F118010A603E49A8B1237AFF2B12D041
:2052CC0010F0140F01D0020901D3277A4FB9C00804D304200860022009F0DAF9FF2020727C
:2052EC005FE0FF203DE0207A00285AD0314B401E19D0401E02D0FD3853D04FE01D68D4F870
:20530C00B4000570D4F8B870D4F8B400401CC4F8B400781EC4F8B800D4F8B87007B3012F30
:20532C0039D909221FE0D4F8B000401EC4F8B000D4F8B070E7B9D4F8B8708FB10220D4F831
:20534C00A8202072127C2D1F012F4FEA420242F001022A6099BF032169600B220A6004E0E1
:20536C000020207204220A60022009F091F9B0BDD4F8AC0000781860D4F8AC00022F00F1CB
:20538C000100C4F8AC00EED2D4F8B870002FEAD100202072052243F8042CE5E7FF20207239
:2053AC00B0BD04F12C0009F0C6F9B0BDAC0100100428004008280040042800402DE9F043E0
:2053CC0004466568A7680E46ADF1140D09F097F995F8E11019B109F06AF900206EE04FF0AE
:2053EC00010985F8E19009F062F94FF00008C5F888803069286170696861307E2876307B8E
:20540C00287330782870706885F8AC80686070694146092828BF494685F89410387B01F090
:20542C009DFE204605F038F8F87E85F895002046FEF7E6FF30B9387B01F0D6FD444685F80B
:20544C00E1803AE0684608F0EDFD009478791D4A019039796B4605F11C0006F0D1FA6846D4
:20546C0008F028FE00941849B8686A46029005F1380006F099FB04F0D1FEC5F8A800287B28
:20548C00012808D1D5F8A400104908F053FFD5F8A40000B184600E4A05F1CC00042123463C
:2054AC0007F04CFC287830B905F16C00414607F081FA084800E0B068A860204605B0BDE8AD
:2054CC00F083C0464D79000079840000A5B3000001E4000025E600002DE9F843424CA06F4E
:2054EC00A56F04F1780900287BD00646F06840F603020827531C02E040687F1EFFB260B13D
:20550C005FB101888A4218BF8B42F5D131694CC830314CC189C881E8890005F1280090E8BB
:20552C000C00002705F12806B84686E88001A96879B13E464FF0E24006EA020110EA030704
:20554C000EBF002932400340B5F93C10AE682869B04709F0D4F80646B4F98E00401C6FF3F2
:20556C001F30A4F88E00484685F83F8007F0DCFD304609F09CF8B4F98C00B4F98E108842BB
:20558C002FD16068D4F8D860D4F8DC7090F8A41000290CBF0520072003F046F940462EB108
:2055AC0096F8A45005B9306886F8A48041462FB197F8A46006B9396887F8A480814238BFAE
:2055CC00011C61B1B1F1FF3F0BD0084A126804F1B400B1FBF2F108F048FBBDE8F88308F07E
:2055EC0009F8BDE8F883C046200D0020782000202DE9FF47424C94F8E70000286ED1012787
:20560C00384E84F8E770F07C84F8E6007568C4F81051684608F090FF002504F10C0001956C
:20562C006B468DF80050304902952A4605F064F92E4904F130006B462A4605F05DF92C4989
:20564C0004F154006B4681462A4605F055F9B16838468847DFF8A4802648327D08F104034C
:20566C000078254E1868C0F3815A22B1BAF1030F04D184F8E170BAF1030F15D0BAF1020F95
:20568C0012D0BAF1010F0CD0022006F031FF042007F038F9012804D030683221B1FBF0F17C
:2056AC000DE006F09FFA12E0022006F021FFBAF1030F0CBF4FF47A7142F210713068B1FB89
:2056CC00F0F1484609F013F8484609F012F840460068C00802D2284606F00AFF0020009013
:2056EC00BDE8FF87F82D01003F8B000069770000E59700007720002078200020B03F005079
:20570C00943100202DE9F84F0E4607465FFA86F8300824BF3A484640DFF8F090394C4FEA8B
:20572C008805A9F10100405907EA0602144086EA00013940B843C1F3006307F4E021044310
:20574C00B1F5E02F01D1600E14D307F4E020184310D004F4E020B0F5A02007D0B0F58030A2
:20576C0004BF24F4003444F4A02403E024F4803444F4C02424484FF0010A0AFA08FBC0F8D2
:20578C0000B008F0BCFF4946230A6D182B70220C6A70210EA97008F08AFF1D4C524604F1F7
:2057AC00D00ADAF80010002002FA08F50D4218BF101C5FEA000905D1F80D24BFC6F380501D
:2057CC0004F80800380E0DD308F099FF310E34BF0021291CDAF80020AA431143CAF8001066
:2057EC0008F065FFB9F1000F05D0F80D24BFC6F3805004F808000448C0F800B0BDE8F88F5E
:20580C00006000A0007F077FE020026001100840002002402DE9F041414C0546207800287B
:20582C007AD0B4F98E00B4F98C1088421DD004F1700128460E4606F0DBFF70B9D4F880105A
:20584C00284608F02FFC28B906F10801284606F0CFFF01E0D4F8800038B1B0F93C100A2261
:20586C004FF0E043284601F095F808F048FF804604F1D8000168A94219BF002646600026DE
:20588C0006602078401EC0B22070A8BB6560207D02280ED1082006F06DFA404608F007FFC7
:2058AC0005F148004FF0FF3108F087FB08F027FF804604F5847008F036FF04F1380008F092
:2058CC001CFF04F59E7008F02EFF04F1540008F014FF04F1900008F004FF04F1B40008F000
:2058EC0000FF04F1240007F095FC0C480078012802D10E2001F078FB606805F148078542CE
:20590C0008BF6660404608F0D2FE384608F007FF05F1800008F0E5FEBDE8F0818A2F010003
:20592C00200D00202DE9F84FD0F88890D0F88CB0D9F80020A2EB0B02B2F5806F88BF4FF422
:20594C008062C0F89020D0F8908090F894C00C681FFA88F2B4F1804F02FA0CF21FFA82FA33
:20596C0014BF314B314B2D4AD9F808703FB94FEA8C050095AD18AE6900F1AE050AE04FEA96
:20598C008C050095AD182E690CF101050BFB057555446D1E9E6096465D604FEA081643F6AB
:2059AC00F07204F10805103E1D6032409E68B4F1804F42EA06069E600CBF194E194ED9F820
:2059CC0004706FB9CC89009BA0F8AE4073449B69B36000F1AE0737600C6804F108050AE03E
:2059EC00009B73449B68B3600CF101030BFB037353445B1E33607560B3681A43B260D0F8EC
:205A0C00A8000A6940684969006811438162606A40F003006062BDE8F88FC046142A010036
:205A2C00400400201005002000050020300400203EB500902D480068C00801D3022054E0F6
:205A4C0000992B483CC93CC03CC93CC01EC980E81E002849FF20086027490120086028485E
:205A6C00264902880968274802F0A8F8264800688047264942F22B000860254942F60B30FB
:205A8C00086024494FF4807008602349002008602249012008602249012008602149012023
:205AAC0008602048006808F0D3FD01900F49086840F0040008601C481B49006820F07C50D9
:205ACC0040F034500860019808F08EFC1748006806F026FD08F06CFD08F079FD06F038FDA9
:205AEC0008F06BFD08F07DFD00203EBD10100940F81C002000600C4054600C40081D00201F
:205B0C00061D002000000E40141D002000500C4004500C4000100E4034500C4018500C4079
:205B2C0008600C4048600C40003009402C2009402DE9FC4191EA03084CBF4FF000484FF0F9
:205B4C0000084FEAC32545EA52554FEAC2264FEA43077F0D11BF45F0004500210020BDE8DA
:205B6C00FC815FF4E06E1EF1FF0E774555D04FEAC12343EA50534FEAC0224FEA4104640D07
:205B8C0011BF43F0004300210020BDE8FC81744543D0E419A3FB0501A3FB06E7A2FB066352
:205BAC001EEB030E57F1000751F10001A2FB05631EEB060E57F1000751F10001FF1851F120
:205BCC000001C01951F100014CBF4FF4806E4FF4007E10EB0E0051F1000148BF641C01D4F7
:205BEC00400049415FF44077FF37E41BDEBF00210020BDE8FC8117F58067BC420DD24FEA87
:205C0C00D02040EA41504FEA41014FEA113141EA045141EA0801BDE8FC810020FF21C900F8
:205C2C00C91D090551EA0801BDE8FC812DE9F84F00298346009106DD024600980021401EDC
:205C4C0042F8041BFBD10098DFF8C880DFF8CC900028C8F800B012DD2F48009C07680025FB
:205C6C0037F8020B38B1D9F80000AE003158002088474BF80600641E05F10105F0D1284FFD
:205C8C0041460120D7F80080C880B8F1000F22DD4FF0000A00980127002817DDABF1040637
:205CAC000446002556F8040FB0F1FF3F04D0D9F800106958884730600021B0F1FF3F08BF8D
:205CCC0001212D1D641E01EA0707EBD137B90AF1010AC245DEDB04A007F0C0FD0D49002091
:205CEC000860BDE8F88FC0467864632E72756E74696D652E537461727475703A20276D611D
:205D0C00785061737365732720657863656564656400C0461C3B0020A8300100AC300100DF
:205D2C00A43001000EB58DF805208DF80410009002208DF806002F48007810B12E480078A1
:205D4C0008B1012054E09DF8040007F039F908B902204DE029480068002100F0B7FF08B9F6
:205D6C00092045E00098002832D09DF8040000282ED09DF8050058B321489DF80410007819
:205D8C00884225D19DF80500082821DC9DF804009DF80520009942431A4801F00FFF1A483C
:205DAC009DF804201849007862F34500087017489DF805201549007862F3C7000870144953
:205DCC00087820F08000087000208DF8060009E0009838B90E49087840F0800008700020F3
:205DEC008DF806000548006804F0A2F89DF806000EBDC0461A3A00201B3A0020041F002031
:205E0C00183A0020C4360020E41C0020E51C0020D61C00207CB50546084603F0A5FB364EB6
:205E2C0002461821304606F057FD07F0C7FB3449103909684C6840F2FF32002380B22C216C
:205E4C0000903046A04708F015F91C210246304606F042FD07F0A4FB02461421304606F094
:205E6C003BFD07F091FD02461021304606F034FD284603F045FB02460C21304606F02CFD98
:205E8C00284607F069FD1D4C400040F020002070284607F06DFD40F010002070284607F09E
:205EAC00A9F902462821304606F016FD284607F077FD400040F06000E070284607F07CFD4D
:205ECC00C00040F0800004F8080C284607F080FD800040F47C40A4F89300284606F0C0FA97
:205EEC0002460821304606F0F7FC4FF48000A4F2091108607CBDC04600A00C4049A10C408A
:205F0C00B40100100EB500918DF8040002208DF8050049E09DF8000007F052F8002853D0DD
:205F2C009DF800002A4908702A482949294A0078097861F34500107000208DF8050043E09F
:205F4C002548007830B12548006800216A4600F087FF02E000982249086000208DF805005C
:205F6C0032E00098002100B101211E48017000208DF8050028E000981B49086000208DF8E5
:205F8C00050021E00420FCF7BBFE8DF805001BE00520FCF7B5FE8DF8050015E00620FCF737
:205FAC00AFFE8DF805000FE09DF804000028B1D0401EC5D0401ED4D0401EDCD0401EE1D05F
:205FCC00401EE5D0401EE9D09DF805000EBDC046183A0020E41C00201A3A0020001F0020DB
:205FEC00283A00201E3A0020203A002038B5314C0D46A8084CD2E8085AD307F0EFFEA06095
:20600C00606804F170050146286878B10069054651B18D4208D0696AC90803D3036A0421D9
:20602C000022984701206875294661604868224900780860022006F05BFA112001F08EF815
:20604C0001201E4D2075287810B90E2001F086F860684168886808B9C86810B1184808F0A2
:20606C0019F81849184D072000230860296817482B606A686B60164B2A68A36140EA02014F
:20608C001A20296008F03FFB192008F03CFB38BDFFF722FA204600F17801096811B903F092
:2060AC0031FD38BD00F5847045F0020108F041FB38BDC046200D0020D02108408A2F010021
:2060CC0051000706000004601410044002000040654500002DE9F0471E46904689460746FB
:2060EC00B6F1FF3FADF1480D09D046B1314909AB6846324606F09AFE0220694601E0002137
:20610C0003200C918DF834002B4DCDF83C902C68CDF8408008F0ECF9EFF3118A2025E4193C
:20612C000B9085F3118842464946384607F072F9031C33D1002E04BF8AF31188002036D060
:20614C0008F058F80B99064609A88861204609A908F09EF90B9806F01DF99DF8340000241E
:20616C00022802D10C9803F0B3FE8AF31188304606F070FEEFF3118385F311880C9810B1F2
:20618C0008F0FDFA0C940B98846183F311889DF83400002814BF0E9B231C07E00C9818B1CD
:2061AC0008F0EDFA00200C908AF31188184612B0BDE8F08721CB0000543001002DE9F0432C
:2061CC000D46334A314906462B46ADF1240D06F054FB0028306108BF012053D04FF001088C
:2061EC00002486F814802B48B461A84203D1684607F002FD6D46A946274D2868274601E07F
:20620C007F1C2868B84229DC2448B168244A006800291AD4B168404617468840F060B168A9
:20622C00B86908F029F9306407F0E4FFEFF311850746202080F31188304607F0B9FC85F3FE
:20624C001188384606F006FE06E01146F46040183064314607F0A0FA204613E0B06B40F8F0
:20626C0027406968FB0003EB071040184268002AC6D0304649469047484607F0C5FA0028D0
:20628C00BED0B81C09B0BDE8F083C046F9D700009D9F000030390020DC2F01006C3001007B
:2062AC0080360020F8B508F033F803F0C5F908F047F8054605F00C000C2853D0E80826D2B9
:2062CC0006F0FCFB2A4E376804460120014607F000F931686143884219D22649F020B0FBF0
:2062EC00F7F0241A887C18B1C868A04238BF041C214D2146284608F044FA284607F0ECFCB1
:20630C000120FCF715FE284607F074F82CE0280928D21A4807F0B6FF0428FAD0184A69096A
:20632C0005D220B11168104621F0010103E01046016841F001010160983210684FF080553B
:20634C0040F003001060D5F8B8018169202088470C4CD5F8B8712068B86B804701202060AE
:20636C00206801E008F0BBF907F0D8FFF8BDC0464C300100F82D0100A0310020004003405C
:20638C008C2108402C2009402DE9F04106467468B56808F0B4F9D4F8881000295ED00F4626
:2063AC0008F085F92968486820F0020048602968486A20F0030048626869D4F8A830296959
:2063CC00084359680968C1F804052968486920F001004861286801210162304606F0D6FC23
:2063EC007E6808F08CF9804694F8E00078B116F0704F06D12EB1062005F094FE042005F092
:20640C0091FE022005F08EFE002084F8E000404608F04DF9387C012804BF02203874D4F8C4
:20642C00A86029696869084371680968C8622868B0F1804F14BF0B490B49D4F89020D4F863
:20644C008C00896880188904A0EB9150401E386004F1380008F06FF9BDE8F08108F027F971
:20646C00BDE8F08100050020300400202DE9F04707467D68BE6890468A4608F040F981463E
:20648C003068006B00F48071287800B119B1484608F00DF957E005F5827008F02CF90024FD
:2064AC00EC77C5F820A06C623168086B40F480700863484608F0FBF805F2291006F01AFFCF
:2064CC004146384605F08AFD05F22919A862A8B93846414604F000FBA878D0B9A96805F1E7
:2064EC00CC0007F06AFDE8B1AC621020E8773146284602F09FFA05F2291022E008F0FFF89F
:20650C003268916B41F02001916308F0D0F8A87810B12046BDE8F087A96805F1CC0007F0A6
:20652C004CFD10B9686ABDE8F0873846414604F0D3FA1020AC623146E877284602F07AFAA1
:20654C00484606F0C7FE4FF0FF30BDE8F08770470EB50191009006F09BFA08B901205CE017
:20656C00019840080CD32E492C48009A0968008809880843024203D007F02AFF02204CE070
:20658C0028480068400807D3274901200860254800684008FBD203E007F01AFF01203CE0E2
:2065AC00019840080AD31E49BDF80000096888801A4900980A881043088003E01848006869
:2065CC00002181800198800805D31549BDF800000968C88003E0124800680021C180019828
:2065EC00C00805D30E49BDF800000968088103E00B4800680021018107F0DAFF07F0E7FFFB
:20660C000A49086840F0400008600849086820F04000086007F0DCFE00200EBD041D00205D
:20662C00FC1C00200C500C403C500C4000500C40F8B50F1C054637D107F0DCFDEFF3118488
:20664C000646202080F31188287D012811D1284607F057FE286C07F04DFE20B12849EA68C2
:20666C00486890434860A86918B1C06808B108F086F8287D022808D1A86930B107F041FEE2
:20668C00A869C06808B108F07AF8287D032803D0284606F07DF802E0284607F032FE84F328
:2066AC001188304606F0D6FB012F27D0686AB0F1FF3F03D0296AEA6907F0B4FD022F1DD0A1
:2066CC00104C2068032F19D0002817DD002F14BF3F1F071C002F0BDD0026606880194169C8
:2066EC0009B1284688477F1E06F11806F5D1206882000548A96B006807F094FDF8BDC04609
:20670C0080360020DC2F0100743001002DE9F04115460446A869A060686A98460E4608B924
:20672C002C4800686062286A002806BF2A480768071C07F077FEEB6983B918B1C119474204
:20674C00491E0F40E7610246E169606A434602F023FD2062A8B90120BDE8F081002804BF33
:20676C002362391C09D04142C018401E084020623F1AE8693F18E7613940E1614FF0FF3065
:20678C006062A6622869E06268692063A86A6063A88D0128A08703D11149C868401CC860C0
:2067AC0010480068002808DD81000C4800680022434607F0AFFEA06348B120464146FFF795
:2067CC00FDFC002814BF801C0020BDE8F0810220BDE8F0817C3001008030010074300100AC
:2067EC0080360020DC2F01002DE9F8430D46064668687468D6F80890002710B9E868002841
:20680C005AD007F07CFF217801290CD1D4F8BC1049B1D4F8C0108D61C4F8C05007F047FF0B
:20682C000120BDE8F883C4F8BC50C4F8C05007F03EFF04F160083946404607F0BEFBB0F190
:20684C00FF3F07D12078012836D040464FF0FF3107F0B3FB022005F04BFED9F8080007F085
:20686C0050FF3046294601F0BBFD0546D9F8080007F049FF207888B9B5F1FF3F08D004F142
:20688C007C004FF0FF3107F098FB207A48B110E003202072022005F045FC0AE0B5F1FF3F19
:2068AC0001D0012705E00320207204F12C0007F042FF404607F035FF3846BDE8F8837047DA
:2068CC0080B50288A2F602073FB143F20502BF1A14BF002090F8240000E0C07B2C4AD2F84D
:2068EC008832401F0B6048D0401E3CD0001F30D0801E24D0C01E18D00F380CD0D2F8900290
:20690C004860D2F894028860D2F8BC0220F0784040F080503AE050694860D06A8860506CD2
:20692C0020F0784040F0704030E010694860906A8860106C20F0784040F0F04026E0D068AE
:20694C004860506A8860D06B20F0784040F0C0401CE090684860106A8860906B20F07840ED
:20696C0040F0A04012E050684860D0698860506B20F0784040F0405008E010684860906944
:20698C008860106B20F0784040F02050C86080BDC41000502DE9F8430446994690460E1C1D
:2069AC0044BF0020011C5BD407F0BFFE054631468022204605F0BCF8071C04D097F83F1060
:2069CC0031F07F0106D1284605F0B0FC02200021BDE8F8834FF0E0400A2107F1200640EAEF
:2069EC00090941EA080896E8030008EA000019EA010608BF00281CD0284605F097FC07F1F8
:206A0C00200003C804F1780604F1780508EA000809EA010986E8000395E80C0007F120068B
:206A2C0096E8030007F120059943904385E8030013E00C48B968884202D0B9682167B860C8
:206A4C0004F1680080E80003284605F06FFC04F148004FF0FF3107F0B0FA783494E803001C
:206A6C00BDE8F883CDA10000D0B501460888A0F6020058B143F20402801A04D0401E12D195
:206A8C0091F8247000E00227CE6901E0CF7B4E694EB1304644F238014FF6FF72052306F0F3
:206AAC0039F9052801DB0120D0BD06EB800632681F4B781FC2F3034417D01C49401E0FD04A
:206ACC00001F0BD0801E07D0C01E0AD00F381ABF191C6031091D04E0091F02E0083900E068
:206AEC000C390868C0F3834003E019460868C0F303200F2806D0A04216D922F4702242EA25
:206B0C00004210E07F1F0AD07F1F08D07F1F06D00F3F1CBF22F4702242F4802203D122F442
:206B2C00002242F4E02232600020D0BD04110050201300502DE9FE4FDFF8C08098F8D101EC
:206B4C0000284FD0002501212C4698F8D12101FA04F0104203D1641C032CF6D342E098F868
:206B6C00D1211020A040104218BF0D1C07F0C7FD98F8D1211121A1408A4388F8D12107F02F
:206B8C0096FDE0B207F05CF960B3877A57B390F9099019490768012D446851F82960019723
:206BAC0010D0017A02290DD100F1100191E8000C00274FF0805317EA0B0703EA0A0108BFD3
:206BCC00002901D101F0B6FF012D04D0009600224FF0006303E000224FF0007300920198CA
:206BEC004946A04798F8D10120B108F59E70002107F09FFDBDE8FE8F94300440200D00209A
:206C0C001EF0040F14BFEFF3098169468869EFF3118102B400B5DFF8A0E0F047294A11680F
:206C2C0001EA000010605DF804EB1EF0080F03D101BC80F31188704704BC1EF0040F14BF7C
:206C4C00EFF309816946A1F1200114BF81F309888D464A604FF08070C8611B488861194BFD
:206C6C001868086040F201101860704702B401B4EFF3148100291CBF002282F3148802B4DF
:206C8C0002B4DFF838E0F04701BC01BC00281CBF022181F3148801BCDFF824E0F047054840
:206CAC004FF08051016001BC80F3118800BF00BFFEE7C04604ED00E009A8000065E6000058
:206CCC00B5E6000024370020796C00002DE9F0410E460746B6F1FF3FADF1380D09D046B12D
:206CEC002B4909AB6846324606F0A0F80220694601E000210320274C0C91EFF3118825689E
:206D0C008DF834002024ED1984F31188788980BB002E04BF88F31188002036D007F06AFA92
:206D2C00064607F0E5FB0B9009A9816105F032FB284609A907F0ACFB9DF8340000250228FD
:206D4C0002D10C9803F0C4F888F31188304606F081F8EFF3118384F311880C9810B107F026
:206D6C000EFD0C950B98856183F311889DF834000BE07889401E78810C9818B107F0FFFC58
:206D8C0000200C9088F3118801200EB0BDE8F081A5CB0000643001002B4A2DE9F04180469B
:206DAC000124A2F13000046024480768002FFCD02649234DC0200B1F28601868800806D254
:206DCC0053F8040C1F4B000C40F0F0001870002010600E68304600F0CBFB40463146FFF709
:206DEC0019F81B49886D40F21E226FF31F40824215D90868020E12F00F0F02F00F01C0F3E3
:206E0C00034018BF491E072805D006280EBF0720801C00F00F0041EA00110E4801703046AB
:206E2C00FDF7C4FE0C480068C16802208847402028600A4F3C60BDE8F081C04694022243C6
:206E4C0000600C405662084040100940B43F0050BC12005002600840A001001094046042EB
:206E6C002DE9F04116468846044607F048FC07462A488325B8F1080F32D8DFE808F0463F9B
:206E8C003C313725150533C00446207DD0B9206FC0B9316804F5847007F04FFC316804F53E
:206EAC009E7007F04AFC32E00446207D50B9206F40B93168192007F02CFC31681A2007F036
:206ECC0028FC24E0002522E0306828B1012807D1802004F04FFF1AE0802006F099FB16E0E9
:206EEC00032514E030780E49087010E031680446103421600BE03088E08208E001202669BE
:206F0C00607506F16000206101E030682060384607F0CDFB2846BDE8F081C046200D0020AB
:206F2C00F00E0020ADF1300D2D4800902D48019020200A90009850F8041B009002910098AD
:206F4C0050F8041B03910090009850F8041B04910090009850F8041B05910090009850F871
:206F6C00041B06910090009850F8041B07910090009850F8041B08910090009850F8041B71
:206F8C00099100900198011D0191029901600198011D0191039901600198011D019104994A
:206FAC0001600198011D0191059901600198011D0191069901600198011D01910799016089
:206FCC000198011D0191089901600198011D0191099901600A98401E0A90ABD10CB0704785
:206FEC00B0220100008000212DE9B043044607F086FB81462748221892F8EF10491ECFB265
:20700C00002F82F8EF703FD1254901EB84014A880C78904634F07F0718D1E1090FD24FF0A4
:20702C00805000F5DC75D0F8B8018169104688472868416B404688470228F9D11EE000EB30
:20704C008800D0F804110020884717E04FF08055D5F8B801016A10468847D5F8B801816A3E
:20706C0040468847D5F8B801016B404688470A4901200860094908688008FCD304F03F0040
:20708C00132801DAFFF7B0FF484607F010FB0020BDE8B0839431002028200860282008407C
:2070AC00C02801002DE9F84F984691468A46054607F025FB834605F005FF0AAF061C40D0EA
:2070CC00244C04F1B40007F016FBC6F80CA0B4F98C0086F83E90401C6FF31F30A4F88C005F
:2070EC00C6F808803561B4F88C00B08797E8060002230B431849002040EA020720223A40D1
:20710C00194006F1180383E8060006F12002014682E80300716331634FF0FF37B763802320
:20712C0086F83F3004F1700085F8A410314606F01DF8206F864201D102F0E4FCB6F93C4018
:20714C0001E06FF00104584607F0B1FA2046BDE8F88FC046200D0020FFEFFF9FF8B5064634
:20716C0007F0CDFA264D0746711991F8EF00421C002881F8EF203ED1224C04EB86042678E1
:20718C0006F03F00132801DAFFF7E8FF648836F07F0018D1F0090FD24FF0805000F5DC7512
:2071AC00D0F8B8014169204688472868416B204688470128F9D11EE005EB8405D5F80411A6
:2071CC000120884717E04FF08055D5F8B801C16920468847D5F8B801416A20468847D5F890
:2071EC00B801C16A20468847074901200860074908688008FCD3384607F059FA0020F8BDDD
:20720C0094310020C0280100282008602820084000B5ADF13C0D01208DF81800684606F056
:20722C0087FD1A4801216A4605F09AFA174807F03BF917490860174800216A4605F090FA00
:20724C00144807F031F91449086009A806F04FFD124809A905F048FC104807F001F9104906
:20726C000860104806F085FD0F494FF4806008600E49032008600F480D490860094A0E4847
:20728C000E49002303F044FE0FB000BDBC1E0020541F0020D81E00205C1F0020A81F002092
:2072AC00581F0020501C0020701C0020681C00206C1C002020050020B01B0020D52A000078
:2072CC002DE9FE4F2748284C002700F180010226ADF104098046BB46009100F18401019190
:2072EC0059F8045F286878B32868806906F028FB824628680023524604F038FC1AF00A0F23
:20730C0008D1BAF1000F1FD0286847F48047C8F8880019E028688169236821F0020123EAE6
:20732C000100124B20602868C16954F8082C22EA010044F8080C296803F1080005F016FF35
:20734C0047F00207C5F800B0761EC9D127B108F58470394607F0EDF900F0B6F8FDF70CFF84
:20736C00BDE8FE8F200D002014100440900D00200EB58DF808100090254800788DF80900FA
:20738C002348007830B12348006802F0D1FD2049002008709DF80800002828D100981530EE
:2073AC0001900198407860B90098C07D002100B101211748017018480068022101F07CFED7
:2073CC0024E09DF8090060B10098027D00991348183200F0F3FB10480068082101F06CFE77
:2073EC0014E00D480068042101F066FE0EE09DF80800072805D108480068042101F05CFE9E
:20740C0004E005480068042101F056FE0EBDC046681F0020541F0020581F0020DC180020A7
:20742C00264838B560300468B4F1FF3F08BF002406F010FC2248234B00250121103805604D
:20744C0003F15C0001601448016003F07DFA1348006820B1124800682046FFF79DFC1148A4
:20746C0011490560114C0A686FF35B4244EA020008600F490868C0F30130012806D10A68BD
:20748C000C48104040F400320A6008600A4908680028FCD138BDC0460822044380012843F4
:2074AC00000120438C210840482003400000390104000940FFFFFCFC0C006842BC1200506B
:2074CC009404604200600C402DE9F047DFF898A0DFF89880002501244FF002091126E8B20A
:2074EC0006F0AEFC071C39D0B87A012836D197F90900AAF10401113004FA00F0C2430A607B
:20750C004A681043486097F9090004FA00F0C0B206F07EF807F11000002105F035FA0146B9
:20752C00812909D1B86918B1002105F02DFA0146812908BF87F80A9081290FD0A8F1180089
:20754C0000F2D11297F90910137806FA01F100F59E7019431170002107F0EBF86D1C032D90
:20756C00BDD3BDE8F087C0460C100440380D002070B5234C234D0646B00E11D2700E0FD337
:20758C00802020744FF6D801A4F85110207001F003FCD0352868C0F30420162806DB04E0A1
:2075AC002868C0F30460162800DB203800EB2670401C162805DA10F10A0FB8BF6FF00900B4
:2075CC0000E01520104D00F01F0040F4F850A4F859002868800803D20C490020086001E002
:2075EC0046F040660A49F00EB50E80F0010000F00100086085F0010000F00100886070BD49
:20760C0015620840B81200500000094094042A4300002043FEB54FF0805647688468D6F8A3
:20762C00D001C16820688847216821488A6B1040886340F2F27120681E4D416494F82000F2
:20764C00295C94F8210040198079084321684863684607F048F8D6F8D001397F05EB81016D
:20766C0046680B6ABA69797F206805EB810189691943BB7F05EB83052B6B0B430199B04751
:20768C002168C86A40F01000C8622168086B40F001000863A07D0027FF2802D0E07DFF2860
:2076AC0000D11FB1086B40F440400863FEBDC0460DF8FFFF5429010008B506F0DDF810B9F8
:2076CC0006F0E6FB38E003F08BFB002834D001200C2100F085F900282ED018490F20087020
:2076EC00164901220A2002F03FFA1548006842F21071B1FBF0F001F017FD124910200322EC
:20770C0005F094FF70B10F480F490078803008800F480E490078803008800F480D490078D2
:20772C0080300880054901200870044901220B2002F01AFA06F0ACFB08BDC046E01F0020F6
:20774C004C30010072200020E21F0020E41F002073200020E61F0020742000202DE9F041D7
:20776C0006F0CDFF254D214E804605F1E000007848B93446A168022088470746102004F060
:20778C001FFD6FB31AE006F0DBFDC0091AD218480068C4681748342101220023A04788B114
:2077AC0002F01AF934460020A16885F8E000022088470746102004F003FD8FB1A1680320EA
:2077CC0088470DE00C4800683221B1FBF0F101B901213035284606F08AFF284606F089FF2B
:2077EC00404606F064FFBDE8F081C046F82D0100A401001000A00C4078200020943100201E
:20780C0000B5ADF13C0D09A806F07CFA184809A905F06AF9164806F029FE16490860684649
:20782C0006F04FFA002005900020ADF810001248124901226B4604F07BFF0F4806F004FE2D
:20784C000F4908600F4806F09FFA0F494FF4806008600E49032008600E480D490860094A4A
:20786C000D480E49002303F053FB0FB000BDC046941F0020241F0020501D002011E10000B5
:20788C002C1F00208C1C0020AC1C0020A41C0020A81C002020090020001C00201D24000037
:2078AC002DE9F0410E46071C14BF002E002040D0224C4FF0FF3104F12800804606F07DFB9F
:2078CC003078FE2811D022680021FF2808D082422AD31F2828DA04EB8000D0F898501DBB42
:2078EC00491C16F82100FE28EFD1002038607860B8603078FE2818D00125FF280FD01F2831
:20790C000DDA7B6804EB800105FA00F0C1F898701843094978603268384604F0BBF916F81E
:20792C00040FFE28E9D100E00027404606F0F9FE3846BDE8F081C046007FC76780300020B7
