:20101000004C002065C0000081DA000081DA000081DA000081DA000081DA000081DA00000D
:1C10300081DA000081DA000081DA000081DA000081DA000081DA00000FE500008E
:20104C0030B5ADF1540D1390139818B9B0480DF0F5FC04E01398AE491DC881E81D00AD48B5
:20106C00007858B1AC480068002106F091FA08B90920E0E2A948006804F0B0FFA8480078D5
:20108C00B8B9A8480DF00CFDA748A64900680860A648006850B1A648006838B1A348A549C0
:2010AC0000680860A248BB49006808609C4901200870BA48B84900680860B9481C220021E5
:2010CC0008F0FBFAB64943F605000880B5496FF04F000870B449087820F00F000870B3481F
:2010EC00B249007820F00F0040F003000870B049087840F001000870AD49087840F00800D7
:20110C000870AB49087820F010000870A948A949007820F00F0040F004000870A64944F6F0
:20112C002060086001208DF8500000208DF8510000208DF85200A1490020087075E00DF004
:20114C00B7FB10B90DF003FA10B100208DF8500001208DF8510081E00DF0AAFB00287DD1E8
:20116C000DF0F5F9002879D101208DF8500001208DF8510072E00DF09BFB00286ED10DF0D0
:20118C00E6F900286AD10DF0D6F9002866D101208DF8500001208DF851005FE00BF064FF4C
:2011AC0008285BD100208DF8500001208DF8510054E00BF059FF052850D100208DF8500011
:2011CC0001208DF8510049E00BF04EFF082845D100208DF8500001208DF851003EE00DF04E
:2011EC0067FB00283AD10DF0B2F9002836D101208DF8500001208DF851002FE00BF034FF4D
:20120C000C2807D00BF030FF0D2803D00BF02CFF0E2823D101208DF8500001208DF8510048
:20122C001CE000208DF8510018E0394800780728F7D802A151F820008746C0464B11000086
:20124C006511000083110000BF110000EB110000A9110000D5110000091200009DF851000B
:20126C0040B92D48006818B12B48006809F0DCFB0220E0E100208DF8530028E024499DF833
:20128C005330A24A0978980000EB4310105C814218D19DF853309D4A9D49980000EB4310A9
:2012AC00801808609DF853209A49900000EB4210085818B901208DF852000EE03F490120AA
:2012CC0008700AE09DF85300401C8DF8530092489DF8531000788842D0DC8D48006840B98E
:2012EC000D48006818B10C48006809F09DFB0220A1E19DF85000F8B18548006887498068F0
:20130C003CC83CC11CC81CC10DC881E80D001CE0CC1F0020523A0020041F0020001F00207F
:20132C00553A0020841E0020603A0020D01F0020D41F0020981E00207548006877498068B1
:20134C003CC83CC11DC881E81D0071480068BB49C0681CC81CC10DC881E80D006C480068A0
:20136C00B74940681DC881E81D0069480068B54980693CC83CC13CC83CC11DC881E81D00E1
:20138C009DF85200E0B1624800680169AE4809F0A6FD1EE09C1E0020FC1E0020D81F002092
:2013AC00141E0020251E0020201E0020211E0020241E00202B1E00202C1E0020543A0020CC
:2013CC0053480068A04940693CC83CC11DC881E81D009E48007810B19949052008709C487E
:2013EC0097494E4AB54B02F07FFAB54908609949002008809849002008609849002008603C
:20140C009749087820F00F0008709549087820F0100008709249087820F0600008709049B7
:20142C00087820F0800008708E488E49007820F00F0040F0010008708A49087820F0F000D8
:20144C0008708949087820F0010008708649087820F0020008708449087820F0040008707B
:20146C008149087840F0080008707F49087820F0100008707C49087820F0400008707A49B6
:20148C00087820F0800008707849087820F0010008707649087820F00200087073490878E9
:2014AC0040F0080008707149087820F0100008706E49087820F0200008706C49087820F07A
:2014CC00400008706949087820F0800008706849002008606749882008807A480078F8B112
:2014EC0066486549086066486549007820F03F0040F01000087063496FF0030008705A4918
:20150C00087820F0200008701DE0C046C83200205C3A0020DC320020793D0100281D00207A
:20152C0059485549086056485549007820F03F0040F0080008705349002008704A490878FE
:20154C0040F02000087051485049007820F0F80040F0400008704A49088820F4F860088006
:20156C004B49087820F0010008704A4801784848007861F34500464908704549088820F4DD
:20158C00F860088044484449007820F0F80040F00800087041484149007820F00F0040F03C
:2015AC00010008703D49087820F0100008703B49087820F0600008703849087820F080008B
:2015CC00087037490020086037483649086038483649086038483749086002204FF0E241C6
:2015EC008DE80300364815490068002200230CF005FA02A80DF0D5F90BA80DF041F932480A
:20160C00006880B9002002A90BAA0BF091FC2E4908602D48006808B903200CE02A480068AF
:20162C0009F002FA03E02848006809F0FDF9274801210170002015B030BDC0460C1F0020DA
:20164C00BC1F0020C81C0020741D0020563A002098170020CA1C0020CC1C0020D01C002035
:20166C00D41C0020D51C0020D61C0020D71C0020DC1C0020E01C0020D81C00204E9055009D
:20168C00E21C0020E61C0020DE510B93E31C0020E41C0020503A0020E51C0020E71C002004
:2016AC00E81C0020EC1C0020E4360020F01C002064200020F41C002038200020841E00205E
:2016CC00001F0020543A0020041F0020523A00202DE9F04FDFF860B30F460446F80BADF1A3
:2016EC00140D80F0F181DFF84C83B80F80F0A681B80880F09381DFF83883F80A80F0F5801A
:20170C00380B80F0CD80380907D2F80FC0F00E8227F0804708F042FF08E20DF034FE814665
:20172C000CF02CFA002800F0B58008200DF058FC002840F0AF8080200DF052FC002840F0EB
:20174C00A98004A806F0AAFE012803D10498002800F0A0805846C9300078002840F09A80B8
:20176C0000240125E0B20DF0AFF948B1867A3EB1857290F9090005FA00F0C0B20BF016F900
:20178C00641C032CEED344460320207504F1B4000DF0F5FD48460DF0CEFDC94800263246EE
:2017AC000168066050F8081CC64940F8086C04F138000DF0F0FD30460CF044FB0DF052F917
:2017CC00A168401A010BE069C1F1FF3282422CBF08444FF0FF30E06194F8200020B12069B2
:2017EC00E169B1EBC02F25D90CF07CFB314600B12946081C1BD0D14840F609010180468051
:20180C00417B05F00F0221F00F010A434273017B06F00F0321F00F0143EA01020273314616
:20182C0041600DF07BFA418811F4406FFBD084F82050E6610AF05CFFC148314606600220B1
:20184C000CF08AF902200BF089FA112006F02EF8207818B9606848300DF0A7FDB94800784D
:20186C0010B90E2006F022F894F8210020B184F8216005200BF072FAB348A0612675B4F90A
:20188C008C00B4F98E10884214BF0220072007F0D1FC02E048460DF04EFD27F0080739E7BD
:2018AC004446201D05680BF065F838B12846ED696FF4807100224FF00073A847E06848B18B
:2018CC000DF0D0F8E2686168801AC860000BC8600026E6609D4904F1380000220DF05BFD39
:2018EC0027F400670220207514E70DF04CFD06460CF044F94446216F0028884600F08880D5
:20190C00002900F085809249042504F13800002225750DF040FD30460DF00DFD04F1B40050
:20192C000DF02DFD0DF09EF8E060D8F810006060D8F81000416AC90803D3036A29460022D1
:20194C009847012009F0B0FC82480DF0E7F965684FF0010985F81590606808F0AFFAD5F8C1
:20196C0008A040F60A02D01F564600F1010C00E01E46736833B119888A4203D0884218BF04
:20198C008C45F5D100217160727B09F00F0322F00F0213437373D8F80C201288904225D0FE
:2019AC006046904222D02C8E0CB3696305F13002518095F83C0001F00F0320F00F00034342
:2019CC0085F83C3095F83D0009F00F0420F00F0044EA000385F83D307260707B01F00F0441
:2019EC0020F00F0044EA0001717300E0E1605046694605F0C7FB68460DF070F90DF05AF829
:201A0C0050460DF08BF9514648460CF0A5F802E030460DF090FC27F4806787E004F040F96E
:201A2C0040467030006808B927F002077EE0C046200D0020280D0020280E00200DF0A3FC33
:201A4C00814604200BF0AAFDC0B1207DB0B14046006898B1256906460DF004F8801B206158
:201A6C00000B2061A84202D240194008206140F6C41181422CBFB0F5967F216148460DF06E
:201A8C005AFC0AF077FF88B1E56920466FF4807100224FF00073A8474046683000680028C2
:201AAC0008BF47F0020701D008F078FD2046A46900214FF080630A46A04727F0005735E065
:201ACC001410044069AC00000DF05DFC22490E6846B306F1280106C90A234FF0E0450B4082
:201AEC00154008BF002B1DD106F1280191E8300006F1280393E8060006F12803AA43A14346
:201B0C0083E806000DF017FCB16869B1002D08BF002C09D030692246B6F93C10B4682B4683
:201B2C00A04701E00DF007FC27F480471FB1584639460DF042FC05B0BDE8F08F6C1F002043
:201B4C0000000460123C0100BD680000497C0000D1DE000001010E04A80D002000B5ADF1F1
:201B6C00440D0191009002A80DF0D0FB03208DF808004FF0804002A908F0E6FFC0490860CC
:201B8C00BF48006830B1BE480068002100228EA30BF090FEBC48BD4906F040FBB9490860D9
:201BAC00B848006810B990A00CF090FC07F092FFE0B108F02BFC0AF06DFE0DF01DFA01205E
:201BCC000AF02CFF0DF01FFB012008F03DFE0AF021FA01200BF056F80BF0DAF80AF002FF22
:201BEC000BF0D2FA38200AF06BF802E089A00CF06DFC4FF4803001214FF47F6209F07EFB42
:201C0C00A3480CF07FFF0DF0F9FAA448A249A14A0068B1FBF0F110680DF0F7FB9D480068F8
:201C2C000CF09EFE9F48A04906F0F8FA9C4908609B48006810B97EA00CF048FC98489B49C5
:201C4C0000680DF0BBF910B181A00CF03FFC9848006800214FF0FF324FF0FF3304F09CFE6E
:201C6C00039003984008C0F0A7800AA807F0C0FEBDF8280008F0B8FD049004980AF05AFF97
:201C8C008C4908808C498B4809880088401A05900598002802D5059840420590874805996E
:201CAC000088884212DA83488349008808800A200CF0ECFE0022002100B1012101B9012230
:201CCC00704800680A210AF039FE03E079487A49008808800BF040FA7048006843F69821BE
:201CEC00B1FBF0F007F09EFF0DF12A000BA907F065FCBDF82A00BDF82C1006AA07AB07F05B
:201D0C0015FD06986E49086007986E4908600DF1320009F0B7F80DF1320008A909AA02F0CC
:201D2C003FFA09980BF084FF674908600DF12E000AF009F928B39DF82E000BF079FF4F4956
:201D4C0006F05BFE0D909DF82F000BF071FF4B4906F053FE0E909DF830000BF069FF47492B
:201D6C0006F04BFE0F900E990D980F9A05F058FE0D98564908600E98554908600F9855499C
:201D8C0008604C48008808F0A5FB4D4800680AF0D1FE80B208F09EFB4A4800680AF0CAFED6
:201DAC0080B208F097FB484800680AF0C3FE80B208F090FB00F0EAFC03988008FFF447AF11
:201DCC0000F0E4FC43E7C04657616974696E6720666F72205343452041444320726561641E
:201DEC00696E672E2E2E00C04572726F7220696E697469616C697A696E6720626F617264F2
:201E0C0020332E335620646F6D61696E2070696E730A00C04572726F7220696E69746961C8
:201E2C006C697A696E672073656E736F72730A004572726F7220696E697469616C697A6972
:201E4C006E6720627574746F6E2070696E730A004572726F72207265676973746572696E9B
:201E6C006720627574746F6E2063616C6C6261636B2066756E6374696F6E00C000008046DA
:201E8C00381F0020341F002014200020F43A002025E700002C1F002080C3C901D43C010015
:201EAC00301F0020FC1F0020C03A0020D1CD0000241F0020281F0020A8390020AA390020E6
:201ECC00942000208C200020902000205020002054200020582000202DE9F04F09AFADF11F
:201EEC003C0D08900A92388809911E46ADF81800101C08BF002000F07581017800274FF006
:201F0C00010B401C4FF0FF39B846DA460A9061E1252940F056810178401C0A902D2918BFEB
:201F2C00ADF8068004D10178ADF806B0401C0A9030291CBF4246434604D10178401C5A463C
:201F4C005B460A902A29CDF800804D4617D1049330680A9BCDF80890C01C20F00300001DEA
:201F6C00306050F8044C1978002C009403F101000A9018D5ADF806A06442009413E044465E
:201F8C000AE0600000EBC4004018A0F130040A9801780094401C0A90302901DB3A29F0DB17
:201FAC00CDF8089004932E2929D10178401C2A290A9011D13168CDF80880C91C21F003014C
:201FCC00091D316051F8045C002D48BF454601782B46401C0A9011E0454643460AE068009F
:201FEC0000EBC5004018A0F130050A9801782B46401C0A90302901DB3A29F0DB02930AB1D2
:20200C00224604926C2904D04C2918BFADF8048004D10178ADF804A0401C0A900BA8CDF8D3
:20202C000C800FAB07906429059300F0828069297FD0BDF818C075296DD0782969D06F29E5
:20204C0065D070294ED063293ED0732922D00A98401E0A90099801281AD966490C68B5F140
:20206C00FF3F03D0A84288BF6D1C05D86FF00041814294BF0D1C099D029508A80AA93246B5
:20208C006B46A04709993F18091A0398099165E0454617E03068C01C20F00300001D306050
:2020AC0050F8040CBCF1010F014608B94FA0014607910CF077FD0390B5F1FF3F4FD0A84239
:2020CC004DD9039528464AE03068C01C20F00300001D306010F8040C8DF82C005D46039566
:2020EC0058463CE0082035680490E81C20F00300001D306050F8041C082210230FA807F08A
:20210C006FFE401E079040210170079823E0082302E0102300E00A233068C01C20F0030009
:20212C00001D306050F8041CAA42BCBF2A1C04920DE03068C01C20F00300001D306050F8D2
:20214C00041CAA42BCBF2A1C04926FF009030FA807F046FE07900599081A0390009C241AEF
:20216C00BDF8065000945DB906E008A8202109AA0BF0CAFB7F1C009C641E0094F5D50398A2
:20218C00401EB0F1FF3F03900FD1BDF8060001281CD10098401E009018D408A8202109AA9C
:2021AC000BF0B2FB00987F1CF4E70798017809AA08A80BF0A9FB0798401C079003987F1C7B
:2021CC00DEE708A809AA0BF09FFB7F1C0A980178401C0A9000297FF49BAE089808B14146C5
:2021EC00017038460FB0BDE8F08FC046286E756C6C2900C0543D0100BA482DE9F84F002519
:20220C00B94CB749056094F8E200002800F06381012800F02F81B54E02283CD0032840F081
:20222C005A8151F8250CD4F8B8100029A0F5C060C4F8D400B8BF49420028B8BF4042814255
:20224C0026DA4FF08057D7F8A4014568B4F8BC0030214FF47F42082300903046A847D7F88F
:20226C00A4014568B4F8C00004214FF4F802122300903046A847D7F8A401B4F8D0704568FB
:20228C0020214FF440620A2330460097A847012584F8D8501AE151F8258C0CF07DFE2F4638
:2022AC0000B901273946924F38680028FCD0B146012609F10409D9F82CA03E6009B10CF027
:2022CC0071FECAF30720C4F8BC000CF065FEAA4600B9B2463B68002BFCD0D9F800B0BAF161
:2022EC00000F3E6001D00CF05DFECBF38440C4F8C0000CF051FEAA4600B9B2463B68002B45
:20230C00FCD0D9F81C90BAF1000F3E6001D00CF049FEC9F38120C4F8D000B8F5C061C4F889
:20232C00B81000F09C8094F8D80068B9C4F8D410D4F8C000C4F8C800D4F8BC70C4F8C470A0
:20234C00D4F8D030C4F8CC30D4F8D400D4F8BC30002854BF02226FF0010204F1C8010F689F
:20236C0000EB40008018421000EB927207EBA2000860D4F8C810C4F8C43000291CDD1E2994
:20238C003CDDD4F8CC0030B93429B4BF15391E21C4F8C81025E02A29BABFD4F8C8000B38FE
:2023AC001E20C4F8C800D4F8C4003F28B4BF401C3F20C4F8C4001FE0D4F8CC00032812D006
:2023CC0011F10B0FC6BFD4F8C8000B30301CC4F8C800D4F8C4000028C4BF401E051CC4F83B
:2023EC00C450032508E011F1150FC6BFD4F8C8001530301CC4F8C800C4F8CC504FF080576B
:20240C00D7F8A401B4F8C43030214FF47F424568364800930823A847D7F8A40104214FF493
:20242C0000321123456831480096A847B4F8C860D7F8A40104214FF4F802122345682B4880
:20244C000096A847D7F8A40120214FF440620A23B4F8CC60456825480096A84701E084F850
:20246C00D85040F2FF50404502D8801C40452DD208202EE051F8251C1E4F4BF2F52048431E
:20248C00060A3868C0F3814001280AD10BF066FA0AF010F90CF08CFD3111C010484306EB97
:2024AC00E03694F8E50030B91348006820F07F403618760801E084F8E5501048310C0660B5
:2024CC00012741600E4D8760287808B90B2000E0052084F8E40001F02DFFBDE8F88FC046A5
:2024EC002D400C402C500C40B431002000A00C4000800C40B43F0050102009403C600C40EE
:20250C00953A01002DE9F04F044609AF9A4691468846ADF1140D01940CF035FF98490D6829
:20252C000290A54208BF4D68974C6FF0010B35B105F180000CF0B2FB002840F00F810BF064
:20254C00F9FA061C00F0158104F1B4000CF017FFC6F80C80B4F98C0099F80430401C86F8F7
:20256C003E306FF31F30A4F88C00C6F808A0B4F88C00019AB0878348326197E80C004FF070
:20258C00000B2021DC4606F118071940104087E8030006F1200383E80018C6F834B06246A9
:2025AC003263D9F80800B06386F83F20D9F80070009207B1776398F80C0000F00F00022887
:2025CC0004BFD8F808003063082740464368002B18BF002F40F0BE8000886FF30900B0F52A
:2025EC00305F18BF022006D196F83F0040F0100086F83F00082006F1180191E8800106F17D
:20260C00180342EA080240EA070183E80600D4F8F8000199814207D194F80401410824BF04
:20262C0000F0FE0084F80401002D70D0039504F1700101980D6888460AF026FFB1465F461D
:20264C005FEA000A0FD1D8F800202AB1D4F88010304606F035FF18B9BAF1000F03D103E032
:20266C0001275D4630E0554645B12A683046294606F026FF38BB002A1546F6D103983146FF
:20268C0007F05AFF051C02D0A9451AD1E5B9D9F80C10D8F80450087B00F00F00022813D1D3
:2026AC00087BC01140080FD2002D4AD1D4F8800050B1D4F8801030463A4606F001FF18B9E3
:2026CC003FE0082700E00227BB46BBF1010F04D104F1700049460BF092FBBBF1020F0BD1F0
:2026EC002F682A6804F170001FB949460BF076FB02E049460BF061FBBBF1080F04D196F87F
:20270C003E1028460BF02CFD3BF0080004D104F1700031460BF062FB1BF1030F11D096F804
:20272C003F00B6F93CB0009940F0800086F83F00019F87F8A410206F86421AD107F02EFF74
:20274C0017E0B4F98C0000F6FF706FF31F30A4F88C0003E07F1E1846FFB237E794F80401C1
:20276C0040F0040084F8040101986FF0020BC4F8F80002980CF0DFFD584605B0BDE8F08FF6
:20278C00F80D0020FFEFFF9F200D00200EB58B48007818B90CF05AFC88490870874800786E
:2027AC00874900900868002245A300210BF082F884480088824900900868002247A3002151
:2027CC000BF078F880487B49006808F09DF80DD27D4800680AF092F98DE8030078480068D0
:2027EC00002244A301210BF065F80CE0764800680AF084F98DE8030071480068002246A31D
:20280C0001210BF057F8714800680AF077F98DE803006B480068002248A302210BF04AF8B5
:20282C006B486549006806F0E8F80AF067F98DE8030063480068002246A303210BF03AF8AC
:20284C00644800680AF05AF98DE803005C480068002245A307210BF02DF85F4800680AF02C
:20286C004DF98DE8030056480068002242A308210BF020F8594800680AF040F98DE8030091
:20288C004F480068002240A309210BF013F8544800680AF033F98DE803004948006800223B
:2028AC003DA30A210BF006F84E4803C88DE803004348006800223CA30B210AF0FBFF0EBD50
:2028CC001B5B324A201B5B303B30484E6F64652049443A2030782530327800C04E6F646507
:2028EC00204144432052656164696E673A202530346400C01B5B33316D54656D70204C6F4B
:20290C0063616C2052656164696E673A20252E326620431B5B306D001B5B33326D54656D78
:20292C0070204C6F63616C2052656164696E673A20252E326620431B5B306D0048756D69E8
:20294C00646974792052656164696E673A202530346600C050726573732052656164696E4E
:20296C00673A202530346600416363583A20252E3266206700C046C0416363593A20252E9D
:20298C003266206700C046C04163635A3A20252E3266206700C046C053746570436F756E22
:2029AC00743A20256600C046543A20252E386C6600C046C00000F0410000C842B039002097
:2029CC00381F0020281F0020942000208C20002090200020502000205420002058200020E1
:2029EC00AC390020B83900202DE9F84F07468748DFF80C8235380068800880F0F2800AF09E
:202A0C00ADFF864908310B6800251C17641C990D0AD2C0F13E0110F10A0F4FEAE101D8BF6D
:202A2C0008218C42B8BF0C1CDFF8D8E1990E0FD2590E0DD37246143A1168C1F304211629FE
:202A4C00A8BF20391268C2F30462162A0EDB0CE0684AD2F87C11C1F304611629A8BF2039DF
:202A6C001268C2F30442162A00DB203A09199346162905DA11F10A0FB8BF6FF0090100E06C
:202A8C0015215D4C5D4E01F01F0242F4F8522280326812F0030F18BF0125D20828BF45F0CB
:202AAC0002050FB145F00405424692F90740041B052C04DA9479AC4208BF918870D00F282B
:202ACC00A0F10F0A2BDB0AEB0014A4F1F00A4FEA2A29B9F1070F88BF4FF007094E46062EF8
:202AEC0088BF06265EF82670042404EB8604764634594FEA9508E41B04F0FF06EF0824BFD9
:202B0C00C4F307273E444FEA550CAF0824BFC4F307473E446F0828BF06EB146605E00026B3
:202B2C004FEA95084FEA550CB1465EF829E05FEA58070EF0FF0424BFCEF307273C445FEA7F
:202B4C005C0724BFCEF307473C446F0828BF04EB1E64B6B2ABEB0101AAEB09277E43002916
:202B6C0006F1800604EB1624D8BF012103F0FF0334264E43B1B259434FF6FF73B1FBF4F1C3
:202B8C008B4238BF191C802889B2918005DA10F1800FB8BF6FF07F0000E07F20D0719571B2
:202BAC00194800681F2910604FF0000008D340F2FF128A4206D24908401C8A42FBD301E05F
:202BCC001F219180124F114E0F39090940EAC10047EA0001C6F8FB1F0025C6F8FF5FBDE8A3
:202BEC00F88F0C490C4F424608200F60921D1070BDE8F88F3C1100506E62084024220840D5
:202C0C006C2000209C130050082009403500094000E7A48030100940FDFDA400AC3F0050A1
:202C2C002DE9FE4F0E46054630686C68D5F808B0F8B1B7680FB97368DBB194F8941000204E
:202C4C00012908BF0120384202D17168084205D0012080F00100C0B201280AD10CF093FB7F
:202C6C008146D4F8880038B148460CF064FB032030740020BDE8FE8F4FF0010886F81080EC
:202C8C00C4F8886000200290C4F88C00C4F8900048460CF050FB94F8AC0038B194F8952007
:202CAC006B49D4F8A400114309F02CFE77680CF06AFB824694F8E00070B917F0704F06D133
:202CCC002FB104200AF030FA06200AF02DFA02200AF02AFA84F8E08050460CF02CFBDBF8D1
:202CEC000010486840F0020048602078002840F08880DBF81C003168884240F28280207B15
:202D0C0018B16068B0F1FF3F7BD148460CF013FBB0685D4600280CBF04F1AE08804670685C
:202D2C0028B9E88904F1AE07A4F8AE0000E00746606909282CBF02200120D6F800900190FD
:202D4C00B9F1000F30D0DFF80CA16069092810D3DAF800004268398828689047DAF80000D7
:202D6C00C268286869469047BDF80000A8F800000FE0DAF800004268397828689047DAF85D
:202D8C000000C2682868694690479DF8000088F80000B3680BB10198804473680BB101986E
:202DAC003F18B9F10109D0D12968C8684008FCD3DBF80010486820F00200486077680CF05B
:202DCC00E2FA054694F8E00078B117F0704F06D12FB1062009F0C2FF042009F0BFFF0220D1
:202DEC0009F0BCFF029884F8E00028460CF0A3FA0298D4F888100874C4F8880001200290A5
:202E0C0022E02046594603F071F9DBF80010486940F00100486120780028EFD1616804F196
:202E2C006C0006460BF00DFF0028E7D0D4F88800017C012904BF03210174284603F006FF2B
:202E4C00029930460BF0FDFE0298BDE8FE8FC04600000680C401001030B5ADF12C0D0691DF
:202E6C00059001A80BF0EAFD01A8FEF7E9F810B15EA00BF02BFB01208DF81C009DF81C0054
:202E8C00C8B1082004F028FE0CF0C2F80CF0C6F84008FBD36D4800684068014602208847E8
:202EAC0069490870684800780028EFD00CF0AAF8082004F0FBFC64480121012203F094FBA9
:202ECC0010B150A00BF002FB5F486149007808706049022008700BF0B5F85F4908605F485A
:202EEC00006800214FF0FF324FF0FF3303F054FD08900898400845D30BF0A4F809905648B2
:202F0C000999006888420ED2534A5649544B09981568554C09681A68401B4143B1FBF4F0F5
:202F2C0012181A600DE04C484E494D4B099D4E4C006809681A68401B4143B1FBF4F01218FD
:202F4C001A600998444908600BF06EFD4749088048484749008808800F200BF08DFD0022D1
:202F6C00002100B1012101B901224348027014223B49374800923D4A0068096812680223AD
:202F8C0001F0A0FA0898800811D33C48007858B13B49032003F018FC3A48002100F090FDBB
:202FAC0010B121A00BF092FA00200AF0ABFF0898C00813D33148007840B934483249007891
:202FCC000978884202DD06F0D9FC07E02B48007820B922480068102106F0ECFD089840097A
:202FEC00FFF47DAF01200AF08DFF78E7456173794C696E6B5F696E6974206661696C6564E8
:20300C0000C046C0456173794C696E6B5F656E61626C6552784164647246696C746572202D
:20302C006661696C656400C0456173794C696E6B5F726563656976654173796E6320666118
:20304C00696C656400C046C0673A0020CC0100100820002009200020641F0020581F002097
:20306C000C200020D43C0100A0860100102000200A200020601F002012200020681F00208E
:20308C0080380100F97C0000D0180020D118002000B5ADF1140D8DF8080004208DF8090032
:2030AC007048007810B17048007808B10120D6E09DF80800042809D09DF80800052805D012
:2030CC009DF80800062801D00220C8E06748B0F90000002801D40920C1E065480068002129
:2030EC0004F056FA08B90920B9E09DF80800042803D09DF8080005286ED15E4940F6080073
:20310C0008805D49087820F00F0008705A49087840F08000087059490020086058490878C8
:20312C0040F002000870584856490068086054485349007820F00C0040F0080008709DF8B9
:20314C000800042809D151494FF6FF7008804C49087840F00100087008E04C494AF6AA203A
:20316C0008804749087820F00100087048484849007820F00F0040F001000870464B02200E
:20318C004FF0E2418DE8030042483A490068002204F0EAFB354908800020ADF80C000FE013
:2031AC003E48006842F21071B1FBF0F006F03AFDBDF80C00411CB0F5FA7FADF80C1003DCCB
:2031CC00374800880228EBD135480088022844D100208DF8090040E0324940F607000880A4
:2031EC003149087820F00F0008702F49087840F0800008702D49002008602D49087840F0EE
:20320C00020008702A49087840F0040008702A4828490068086029482849007820F00F005D
:20322C0040F0010008701C4B02204FF0E2418DE8030018481B490068002204F095FB0B4950
:20324C0008800A48B0F90000002803D400208DF8090002E004208DF809009DF8090005B04B
:20326C0000BDC046523A0020533A0020643A0020041F00208C390020983900209439002062
:20328C009A390020A03900208C1D00209C3900209F390020001F0020DDD60000D43C01007D
:2032AC008E390020083A0020143A0020103A0020163A0020183A0020D81C0020173A00207A
:2032CC0001282DE9FE4F40F0EE80DFF810B2DBF8DC00012840F0E4800220CBF8DC000BF0F7
:2032EC00C7F9012009F088FD5FEA000805D00120CBF8DC000BF0C8F9D7E00CF05AF86C4907
:20330C0002900020086001200AF048F9012818BF002003D1002007F0A5F901206549009023
:20332C000020654F0860386811200BF053FE00280CBF0024012410200BF04CFE08B144F08A
:20334C0002040F200BF046FE08B144F004040B200BF040FE30B1624814300068574E016B4C
:20336C00308888470A200BF035FE002600B101264FF0805A0AF5DC75301C04D02868504EAD
:20338C00016B308888474F48012606602868816944F0200088474C4806600BF015FE00F075
:2033AC0001010191400814D248480BF0AFFD8146B9F1040FF8D0B9F1010F05D1DAF8D80181
:2033CC0042684248032190474149086820F0030008600020FFF708FB2B683868986B804727
:2033EC00019801280DD0B9F1010F05D1DAF8D80142683648314690473549086840F0030050
:20340C0008602C48066028684169204688470B200BF0E0FD20B12868284BC16A188888477E
:20342C000A200BF0D7FD20B12868254BC16A188888472448032206602349CBF8DC200023D7
:20344C000B602868416B204688470128F9D13868042009F0D1FC044615481E4906603868F3
:20346C0008688009FCD30098012802D1304607F0F9F80BF097FD082009F0BEFC0746029835
:20348C00CBF8DC6009F06EFD1348008806F01EFE0BF0FAF857EA040018BF4FF0FF3804E065
:2034AC006FF0040801E06FF001084046BDE8FE8F0C400940000222432C2009407635010057
:2034CC00723501002820086080010443004003402422084014100940903A0100B431002072
:2034EC00A401001010B5ADF1300D079005208DF826006F48007810B16E48007808B101200C
:20350C00D3E00798007B802801DD0220CDE06A480068002104F03CF808B90920C5E06748DC
:20352C000078E0B1664907980978007B4018801C00F0FF0040F4C050ADF82800614902206C
:20354C000870BDF82800604900F0FF000870BDF828005E4900F47F40001208700AE05949AD
:20356C0001200870564907980A78007B564980180870FFE75348524A534B0799007812785F
:20358C00C01804F0D9FF4F494D48079A0C784E4B00780799127B00190D31C01804F0CCFFFD
:2035AC00474A079847491378007B0A784849C01880180880444847490860079807F0D4F947
:2035CC00089007988068C8B143484349007820F00F0040F0020008703F49087840F0800037
:2035EC00087007983D49806808603C48089900684FF47A6202FB0100049014E036490878A1
:20360C0020F00F0008703449087840F08000087032490020086007F0B7F808994FF47A6279
:20362C0002FB010004902E48007888B101208DF814004FF0E24102208DE8030029482A492B
:20364C00006804AA0023FEF75DFFADF824000DE002204FF0E2418DE80300224822490068E5
:20366C000122002304F080F9ADF824001D48BDF92410006802224FF0E24303F0EDFD02AAFA
:20368C0082E8030002A890E80C00022100201140184000D1002902D000208DF826000648B2
:2036AC00006807F0C1F99DF826000CB010BDC046523A0020533A0020041F0020543A002051
:2036CC00503A0020513A0020A41A0020A51A0020841D0020901D0020801D00207C1D0020C8
:2036EC00563A0020001F0020741D0020774A2DE9F84F074621F00040884682420AD9744930
:20370C0081422ED957A20CCA4146384600F0BFFABDE8F88F6F4A0FF2541982420AD8C0F3AA
:20372C00130057EA000601D1080816D238460B460246EBE74FA20CCA384605F0F6FC98BFED
:20374C000FF2381905D94FA20CCA384605F0AAFC07D80BF03AFE2221016099E80300BDE86E
:20376C00F88F4AA696E80C004146384600F08FFA05464FF4002202EB0532120D140596E834
:20378C000C0000F07FFA0B4602464146384600F079FA514B803505F0FF056A0003EBC2053E
:2037AC0095E88001561C03EBC6030CCB00F06AFA4A4D8A460646A54203DD49496118894657
:2037CC0002E0484820188146414638465346324602F092FD2FA200900CCA8B4651463046C0
:2037EC0002F08AFD2DA20CCA00F051FA5346324602F082FD2BA20CCA00F049FA53463246FB
:20380C0002F07AFD29A20CCA00F041FA5346324602F072FD27A20CCA00F039FA0246009853
:20382C000B46594602F068FD0B4602464146384600F02DFAA5420BDCB4F1804F05D10B4617
:20384C00024600F024FA1DA207E04B46002205E04B46002202F050FD1AA20CCA02F04CFD09
:20386C00BDE8F88F000000000000F03F000000000000000000000000000090400000000011
:20388C000000F07F0000000000CC90C0000000000000B842745C870380D8553F0004F788CE
:2038AC00ABB2833FA6A004D7086BAC3F75C582FFBDBFCE3FEF39FAFE422EE63F0000000065
:2038CC000000E07F0000000000007001000090400000903C0000F07F48F40000000030C0D5
:2038EC000000707E0000F03F2DE9F043044665480E4601681F461546ADF12C0DBEB1B5B136
:20390C0030784FF0010808FA00F001420FD0104600210BF044FDA56066600BF034FD5A4D46
:20392C0081462878022804DB48460BF004FD0020A5E0002861D102F03FFA5449086840F01A
:20394C000200086007A80BF0F9F9514E5149707807AA099005F5847008F042FF4E4905F532
:20396C009E7007AA08F03CFF07A80BF09FF9192107AB3078494A089005F1380008F05CFEC8
:20398C00474A05F154001A2107AB08F055FE4549002205F19000134607F082FD4249002256
:2039AC0005F1B400134607F07BFD404A05F12400042100230AF00EF8B078012802D10E204B
:2039CC0004F08AF805F178000BF042F805F170000BF03EF8002085F820002875E861072160
:2039EC0085F8D01185F82100314B1870A8600526E860304A2E612878AA6105EB8001401CBF
:203A0C00C1F8D840C0B2287048460BF094FC1FB968460BF045F86F4638684FF4FA76E6609A
:203A2C002060B86941466062388A6175E082786800280CBF40F6C410002120611E48E06170
:203A4C0020622175A061F86800B1E061786900B12062B86800B1A061782204F13000002129
:203A6C0005F02BFE04F14800002109F0EFFD1349002204F18000134607F012FD20460BB066
:203A8C00BDE8F083D4210840200D002000200940103C0100C5E600000574000069AC000089
:203AAC00719A0000B1DE000071E200009DB5000086200020BD6800008F7100002BF30000B2
:203ACC0000B5ADF1240D0691059006208DF820005848007810B15848007808B10120A7E00D
:203AEC005648B0F90000002801D40920A0E054480068002103F04CFD08B9092098E005986D
:203B0C00504908605048079007988921C1800798002101714D49079808604D4900200860F2
:203B2C004A484C4908604D484B490860069880B14B484B49007820F00F0040F00200087022
:203B4C004749087840F0800008700698454908600CE04349087820F00F00087040490878F5
:203B6C0040F0800008703F49002008603E480068A0B13E483D49007820F00F0040F00200ED
:203B8C0008703A49087840F08000087006F0FCFD3549374A0968401810600FE03348334969
:203BAC00007820F00F0040F0010008702F49087840F0800008702E4900200860274800210A
:203BCC000C2205F07AFD2B480078A0B101208DF80C00274800680290294B4FF0E2410220F0
:203BEC008DE8030024482549006802AAFEF78AFC124908800DE002204FF0E2418DE803000C
:203C0C001F4B1D481D490068012203F0ADFE0B4908800A48B0F90000002803D400208DF8BF
:203C2C00200003E00648006806F0FEFE9DF8200009B000BD523A0020533A0020643A00208B
:203C4C00041F0020F81E0020741900206420002068200020F01C0020F41C00203820002012
:203C6C00D41C0020D01C0020583A0020E71C0020E81C0020563A0020001F0020C81C002030
:203C8C00493E00002DE9FC4F83F0004301E02DE9FC4F1F03FF0847EAD2574FEA42284FEAD9
:203CAC0043095FEA595906D147EA080A1CBF00210020BDE8FC8F57F000575FF4E06E1EF1FD
:203CCC00FF0EF14505D14FF00000190D0905BDE8FC8F002B05D55FF0000AD8F100086AEB98
:203CEC0007070C03E40844EAD0544FEA40254FEA4106760D08D144EA050A19BF002100208D
:203D0C00191C101CBDE8FC8F44F00054764504D10020090D0905BDE8FC8F002904D55FF029
:203D2C00000A6D426AEB0404B6EB090E08D5A2463C465746AA464546D046CEF1000E4E46D3
:203D4C00BEF1360F5CBF4FF0000B23E0BEF1000F04BF4FF0000B1AE0CEF1390ABAF1200960
:203D6C002EBF08FA09FB07FA0AFB4BEA080BDEF1200A07FA0AFA38BFBA4647FA0EF72DBFCF
:203D8C0028FA0EF8AEF1200E4AFA0EF8D04415EB08057C4154EA050A02BF00210020BDE806
:203DAC00FC8F002C58BF4FF0000A06D55FF0010A5FF0000E6D426EEB0404A6F101066D0033
:203DCC006441FAD515F4806E11D005F480794BEA090B15F5806554F1000428BF761C0BD2C2
:203DEC0005F400795BEA090B08BF25F4006525F4E0656D0044EB0404B61CDEBF00210020F5
:203E0C00BDE8FC8F5FF4E06E1EF1FF0E76450AD34FF0000013F00043FF21C900C91D0905AF
:203E2C001943BDE8FC8F270547EA1530210B41EA065141EACA71BDE8FC8F704700B5ADF1FA
:203E4C00140D8DE80C00ADF81010029006208DF81200534803909DE80C0002210020184046
:203E6C0001EA020100D1002978D04E48006806F0DBFD4D494FF0FF3008804C480088B0F5ED
:203E8C00505F5DD103980079032803D006208DF8120079E046480088012808D045480078F5
:203EAC00C011400838D344480078012834D1444903980A78007A4149801A087041480078DF
:203ECC0018B141490220087002E03F49012008703D483B4A03990078127809183B48083161
:203EEC0004F02AFB384B3648344A03991B7800781278C91809183648083104F01DFB3648AA
:203F0C00344990F900000870354834490068086000208DF8120037E032480078012803D190
:203F2C0008208DF812002FE02F480078012803D10A208DF8120027E006208DF8120023E033
:203F4C001A48008843F20141814203D107208DF8120019E006208DF8120015E09DE80C0063
:203F6C004FF0E2400021184001EA020100D100290AD00C48006806F057FD0B494FF0FF30D1
:203F8C0008800A208DF812001848006830B117489DF81210006802460C48904705B000BDC0
:203FAC0074190020041F0020643A0020CA1C002038200020D61C00203C200020201A0020E1
:203FCC00503A0020543A0020513A00200C1A0020211A0020141A00203F200020181A002012
:203FEC00402000203E2000203D200020F81E00202DE9F04FADF1240D079001F0DDFE5F48D6
:20400C00007809F031F85E4D0024012806D90C3804D0401E0ED0401E09D006E00AF0B0FA0E
:20402C00022804BF01210C1C06D0696805E005211F2401E0032107246960524A1068C0F388
:20404C008150012806D152F80C0C0127020E07FA02F004430AF05AFE05F1440AFF2253465F
:20406C004018401E471C28607F1E03F8012BFBD1079A1268002602F0FF03FE2B1DD0DDF8E3
:20408C001CC0964633460EF0FF07FF2F0ED0B84205D3B94203D80122BA40144201D00220C5
:2040AC0069E016430EF0FF020AF802305CF804EF5B1C0EF0FF07FE2FE7D1092003F00CFD53
:2040CC0007980121A86005F1280009F0BFFA00274FF0010BB9462846804600F198050BFA03
:2040EC0007F0044216D1064204BF07F0FF0141F4C04104D01AF80700079951F820102248E8
:20410C0001F0E4FEF8B24FF0FF3109F001FDC5F8009001E004202860D8F800007F1C2D1D21
:20412C008742DCD904A80AF0C1FD184C184A2078102104AB059008F10C0008F07DFA68469C
:20414C000AF0FCFDCDF80C906A4660681149029008F1640008F044FB0F4951F80D0C20F439
:20416C00F85040F4005041F80D0C0C4FC1F8FFBF4846C7F800B009B0BDE8F08F87200020A2
:20418C00A0300020B43F0050007FC7673C3C010055E20000C5C300000D3009400800094024
:2041AC0010B5ADF1280D02920191009060480590009A00990098527800788978000340EA2D
:2041CC00021040EA111004900098009A0099C07812794979000340EA021040EA1110039075
:2041EC00059B059903980A88B3F90210C010A0EB42004143C812069005980599059A039C80
:20420C00039B00880988B2F90420C0EB2310C1EB24114143081342439013079007990698B1
:20422C00401808900898019900EB800080300012086008984010A0F57A4006900599069AA0
:20424C000698B1F91010921080105043C012414307910598069A0799B0F90E00504301EB24
:20426C004001079105980799B0F90C00000400EBA10007900598059A069C0699B0F90A30E0
:20428C00B2F908200698A4108910614349135943C910504301EB6001881406900599069891
:2042AC00C98800F500404143C8130690069800283BD00498079A40F63541C0F58010A0EBED
:2042CC002230414309910998C00F06D1099806994000B0FBF1F0099005E006980999B1FBA5
:2042EC00F0F0400009900599099A0998B1F91610D208C0085043400B4843001306900598F6
:20430C000999B0F9140089084843401307900599079B0698B1F912200999C018801801EB74
:20432C00201109910299099808600AB010BDC0463C1F00202DE9F843614C5A4D5A4EDFF8D6
:20434C0070815E4F94F8E4100846401E0B2864D8DFE800F07B2C43062343062343067664BF
:20436C00042907D001220A2945F8212C14BF0220032004E0202045F8210C0120024684F8C2
:20438C00E200002045F8390C0827C5F8FF7FC5F8F37F45F8392CBDE8F883052914BF092008
:2043AC000620002784F8E400376075E094F8E170383D0120002FC5F81B0004BF06200021D4
:2043CC0002D00021F160032084F8E400032045F8010C3160306880085ED294F8E4103348C1
:2043EC00012703290ED00068456800216022052300914046A84794F8E400062814BF0A20FE
:20440C000720CFE700684568002160220523022000904046A8470420C4E7FEE72548264F16
:20442C000026012506600E203D6003F03FFA022008F094FC84F8E45084F8E360BDE8F8838E
:20444C00002038600C25786024E04FF08059D9F8A0010168202088472C3D0F2045F8010CA7
:20446C0041F61D56C5F80360D9F8A401466800214FF4C0720723022540460095B047D9F878
:20448C00A401C66800214FF4C07207234046B0470120386084F8E45004F178000AF06DFFC4
:2044AC00BDE8F88339400C4038600C40A401001000A00C402C500C4004800C4034600C400E
:2044CC00B431002007B401B400B5ADF1040D8DF80030454900200870454844490078087012
:2044EC00454844490078087045484449008800F47F400012087042484249008800F0FF003B
:20450C00087042484049008800F47F40001208703E483F49008800F0FF0008703E483D4936
:20452C00006800F07F40000E08703B483B49006800F47F00000C087037483949006800F40F
:20454C007F40000A087034483649006800F0FF000870364834490078087035490C20087037
:20456C0034499DF80000087033490698086033490020087006984FF47A614143032002F0BA
:20458C0023F91948FEF7AEFF10B108A009F09EFF2B480021FFF794FA10B10BA009F096FFDF
:2045AC0001B05DF804EB04B07047C046456173794C696E6B5F7472616E736D6974206661B1
:2045CC00696C656400C046C0456173794C696E6B5F726563656976654173796E6320666124
:2045EC00696C656400C046C0401800204D180020082000204E180020092000204F180020B0
:20460C000A20002050180020511800201020002052180020531800200C20002054180020F6
:20462C00551800205618002057180020122000204C180020D1180020D4180020D0180020D1
:20464C00F97C00002DE9F84F064693460868DBF8005007784FF000081C46C246421C242FE3
:20466C000A602DD110F8017F531C532F0B6027D1ED1C25F003052D1D55F8040CE061CBF819
:20468C000050208B0090A168E26930685B46FDF723FC8246306848B1A068002803DD5045E5
:2046AC00D8BFA0F1010A306850443060DBF80050206846464FF00108E660A0EB0A00206025
:2046CC00662F06D0B8F1000F64D1E16901200F705FE0208B40B9ED1D25F007050835A5F1AB
:2046EC00080090E8000309E0ED1C25F003052D1D55F8040C08F002FA804689462AA20CCA4A
:20470C004946404604F0CEFC28BF002705D2206989F000490127401E206125A20CCA494657
:20472C00404604F002FD31D3404607F0EDFA064608F0D8FE0B46024649464046FFF7A2FA32
:20474C001DA20CCA01F0D8FD07F0A8FC0146606904220A2305F044FB401EE0612E21017061
:20476C0063692269E06931461B1AE360D21A0A2305F036FB002F08BFE06104D0401EE061B5
:20478C002D210170E0696169081A02E004A0E0610720E060CBF800505046BDE8F88FC04610
:2047AC00286572726F72290000000000000000000000C0FFFFFFDF41000000000088C3400A
:2047CC00594A2DE9F04107460C460846C0F30A5109058A420BD1014638460B46024601F0E3
:2047EC008BFD23463A46FFF752FABDE8F081002813DC20F0004157EA010604BF011C381C00
:20480C0000F08B80002808D50AF0DFFD44A72121016097E80300BDE8F081061516D103E0AB
:20482C0040EAD720153E7F050028F9D00215002102E04000491C02155208FAD3C1F12002B2
:20484C00761A27FA02F2761C8F401043A6F2FF36C0F31300710840F4801005D307F0004113
:20486C007F00C90F01EB400007F000410024CA0F7F00A44602EB40004FF400110A19904295
:20488C0002DB8C18801A8C4407F0004249084FEA47074FEAD27202EB4000EFD14FF0000E59
:2048AC004FF000417246A0460EEB0103404503DC404510D19F420ED31D0803EB010E03D34D
:2048CC005FEA1E0538BF641CA0EB0800BB4288BF401E5218FF1A07F0004349084FEA47071F
:2048EC004FEAD37303EB4000DDD107434FEA660608D0B2F1FF3F19BF02F0010002440CF19B
:20490C00010C0022094950085FEA5C0201EB6C0128BF40F0004001EB0651BDE8F081C046FC
:20492C00000000000000F87F0000F07F0000E03F2DE9FF4104466668A7680D460AF023FD7C
:20494C003178012903D10AF0F6FC002090E0012131700AF0F0FC287870706878B07068682F
:20496C007060A868B060E868F06028693061287D3075687D7075A87DB075A869B061287F52
:20498C003077687F7077A87F4FF0000843461D4686F82851B07786F82951C6F82080336332
:2049AC0075627563B562B56386F82C5086F82D50786803F091F8204603F0EAFA204603F026
:2049CC0009FE70B92C480068C16838688847786802F06CFF0AF0D7FC35700AF0ACFC2C4664
:2049EC0045E068460AF062F90094387B234A0190B9686B4606F17C0007F01EFE68460AF03E
:204A0C009DF900941E4938696A46029006F1980007F0E6FEB07830B906F1CC00294608F071
:204A2C0015FE18483061707830B906F1E800294608F00CFE1448F06068460AF0C1FB01959F
:204A4C008DF800501149029406F582700A226B4606F026FDB969FA6906F13C000AF0E8F810
:204A6C000B4A06F168000421234608F0B3FF20460090BDE8FF81C046D0010010994E000055
:204A8C00F5AA000005F30000BDF2000035BE000099EE0000B0B5456884684F48297BADF173
:204AAC00180D012916D0217E627E4C4B2F7E0143009143EA02010191494937F0010718BFC3
:204ACC00081CA27E1043029095F895000322FF2811D00DE0677E217E3843A37E019041F083
:204AEC000041009143F000403E49029095F89500014304220391FE204DF82200694605F102
:204B0C00980003F08BFBC5F8A400002808BF00205FD0287B344951F8200001282BD02068A4
:204B2C00B0F1804F14BF22220A22217ED5F8A40008F0E2FA2068B0F1804F14BF2122092299
:204B4C00617ED5F8A40008F0D7FA2068B0F1804F14BF24220C22A17ED5F8A40008F0CCFAA3
:204B6C0095F89510FF2933D02068B0F1804F14BF23220B2228E02068B0F1804F14BF212279
:204B8C000922217ED5F8A40008F0B6FA2068B0F1804F14BF22220A22617ED5F8A40008F0A3
:204BAC00ABFA2068B0F1804F14BF24220C22A17ED5F8A40008F0A0FA2068B0F1804F14BF18
:204BCC0023220B2295F89510D5F8A40008F094FA012006B0B0BDC046000480A00040008000
:204BEC000004C0A0002000809C3601002DE9FF470646880FC0F09780002006F055FB4B48D3
:204C0C000AF08CF8012009F01DF9494C40F60A09A4F8009000256580207B05F00F0120F016
:204C2C000F00014321736560607B4FF0010808F00F0720F00F0047EA00013046617305F0FB
:204C4C003DF9D6F808A04A462146D01F574600F1010C00E027467C6834B123889A4203D0AB
:204C6C00984218BF9C45F5D179607A7B334C05F00F0322F00F0213437B73236F33B1DA685D
:204C8C001288904224D06046904221D0338E03B3756306F13002558096F83C0005F00F0321
:204CAC0020F00F00034386F83C3096F83D0008F00F0320F00F00034386F83D304A60487B07
:204CCC0005F00F0620F00F0046EA00054D7300E0A5605046694602F055FA684609F0FEFF9B
:204CEC0009F0E8FE1348A06194F8210070B9404608F054FC01280FD0787B08F00F0120F0B6
:204D0C000F00014379730C4EA66105E007F00EFD0028FBD00AF045FB504609F0FFFF5146AF
:204D2C00404608F019FF0090BDE8FF8701010E046C1F0020DD1600004DB50000200D002015
:204D4C002DE9F04F04466568A6688846ADF11C0D0AF019FB95F8DC10012903D10AF0EBFAD4
:204D6C00002085E04FF0010B85F8DCB00AF0E3FA706802F0B1FED8F80C00676828B9A0686A
:204D8C0090F814A090F8159003E090F800A090F80190BAF1FF0F15D0B9F1FF0F12D03649C3
:204DAC0041EA0A000490FE23069341EA090107F19800059104A903F031FAC7F8A400D7F80C
:204DCC00A40050B90AF0DFFA002485F8DC400AF0B2FA706802F06AFD49E051460D2208F0CC
:204DEC008BF9D7F8A40049460E2208F085F998F800002870D8F80400686098F80800E860D7
:204E0C00684609F053FF307B00946B46B1681B4A019005F1100007F00FFC684609F08EFF52
:204E2C00306900946A461649029005F12C0007F0D7FC05F16000594608F008FC287830B932
:204E4C0005F17C00002108F001FC0E48686000202872C5F8BC00C5F8C000204606F0FCFC9C
:204E6C00094A05F1C8000421234608F0B3FD204607B0BDE8F08FC04600200084715A000029
:204E8C00A19F0000A5F20000A9ED00002DE9F84F8046D8F808603068D8F80450076CDFF838
:204EAC0030B14764AB6B6A6C286C17F4F06F1946A0EB020934D1F8091ED2780974D3B1B15B
:204ECC0096F821205846801D845C601E814294BF1C1C641E4046214607F0F4FDA86B001B8B
:204EEC00A86361D105F1980001210AF066FA4046494608F091F957E00029F8D0404607F023
:204F0C00E1FD95F82D10A86311B900284CD101E00020A86305F1980001210AF04EFA43E0A2
:204F2C00F80A20D24FF0000A544602E0AB6B5B1EAB6393B14046012107F0C4FD3068446827
:204F4C0014F00F04C0F804A0F0D0286B401E2863686B401E6863A86BE8B905F19800012136
:204F6C000AF02BFA13E0306844680022202904F00F044260CCBF4FF0200A9A4640465146CA
:204F8C0007F0A0FDCAF120008145C8BF81464946404608F041F9EC77404606F024FE726A5E
:204FAC0012B1404621469047B8090FD3A96A69B10F46404607F02EFEA86238B996F82020C7
:204FCC005946895C4046C91906F05AFBBDE8F88FE83501002DE9FC4705466E68D5F8088075
:204FEC0037780FB1B76B1FB14FF0FF30BDE8FC8731630024F477171C74631BD006F13C095A
:20500C000AF0C1F982466946484607F034FB00281ED450460AF08FF99DF80000316B0870CA
:20502C00306B736B7F1E00F10100306303F101007063E5D17078726B316B0128A1EB020132
:20504C00316303D1F36828469847726B144659E0B763D8F80010086B40F400700863D8F878
:20506C000010886B40F4FA60886350460AF063F906F5947008F076FF707806F5947768BB3F
:20508C000AF081F996F82D1069B1716B59B1B16B49B1B4630AF04FF906F5947008F052FF0E
:2050AC00706BBDE8FC870AF046F9716806F1E805284609F0C6FD0028F2D0B46328462146EB
:2050CC0009F0BFFD0028EBD0384608F03BFF1027716B306BF777401A3063E1E70AF053F965
:2050EC0096F82D1061B1716B51B1B16B41B1B4630AF021F906F1980001210AF05EF901E0CD
:20510C000AF019F92046BDE8FC872DE9FC4191EA03084CBF4FF000484FF000084FEA0335C6
:20512C004FEA153556006D414FEA43075FEA575711BF45F4001500210020BDE8FC814FF49E
:20514C00E06E1EF1FF0E77456FD04FEA01334FEA133342005B414FEA4104640D11BF43F41E
:20516C00001300210020BDE8FC8174455DD0E41B002100205FF0360EAB4200D1B24205D36A
:20518C0040414941921B63EB050301E040414941BEF1010E05D053EA020702D052005B4170
:2051AC00EAE7BEF1200F09D2BEF1160F0CD3CEF1200720FA07F100FA0EF00FE0AEF1200EFA
:2051CC0000FA0EF1002009E001FA0EF1CEF1200720FA07F741EA070100FA0EF011F4001F7A
:2051EC0002D140004941641E401C51F1000111F4800F1ABF641C21F4800121F400114FF4F9
:20520C004077FF37E419DEBF00210020BDE8FC8107F58067BC4208D249084FEA300041EAF8
:20522C00045141EA0801BDE8FC810020FF214FEAC101C91D4FEA015141EA0801BDE8FC81B5
:20524C002DE9FE4F0CAF1D468B465FEA02083E78009014BF4FF080494FF000590AF093F85F
:20526C000324DFF800A10190BBF1FF3F14D152460098D2F8801009F059FD50B9D2F88410E3
:20528C00009809F053FD00280CBF176FD2F8847008E0D2F8807005E000985946002207F013
:2052AC0063FA0746002F56D097F83F0030F07F0050D05446D4F88000B84217D0D4F884003F
:2052CC00B84213D000982A463346394603F026FC00283FD0207D01283AD0207D042837D0F9
:2052EC00214904F584700AF068F831E0D4F880004B46002207F056FAD4F884004B46002297
:20530C0007F050FAB8F1000F14BF1848184808F039FBB6B1D4F8800000224FF0807307F0CB
:20532C0041FAD4F8840000224FF0807307F03AFA3869C4F8F80094F8040140F0010084F8C4
:20534C0004012DB1216F00982A46334603F0E6FB832400E00424019809F0EDFF2046BDE841
:20536C00FE8FC046200D00200200004001000204010001042DE9F041424C464D8046C8F309
:20538C008140401E02D0401E2DD028E0284620300168880C23D24FF4804020603A48D0F830
:2053AC0002204B0AC1F3033703F0800322F08F02134347EA0302C0F80220D0F80120C1F360
:2053CC00032622F00F0246EA0203C0F80130026801F0E70722F0E70247EA020102E04FF0BE
:2053EC000041204601602D4E301D0068C0F3C0070FB94020A0624FF40070206409F076FC23
:20540C0040F0300084F8C800C8F3815040B3401E03D0401E1FD002211EE0012008F0BEF8EF
:20542C0007460420394605F04FF9042008F0B6F88742FAD1361F366826F07F4007F044FED4
:20544C0012480068036807214FF06022300E98474FF4806020600321042005F035F906E019
:20546C000420012105F030F9094807F02DFE2846094F006800F03F0084F8CB0F3868BDE851
:20548C00F081C04640A00C400A600840B4010010BD3786006C1300502C200940AC3F0050CD
:2054AC00ADF1300D464800904648019035200A90009850F8041B00900291009850F8041BB8
:2054CC0003910090009850F8041B04910090009850F8041B05910090009850F8041B0691BD
:2054EC000090009850F8041B07910090009850F8041B08910090009850F8041B0991009098
:20550C000198011D0191029901600198011D0191039901600198011D019104990160019814
:20552C00011D0191059901600198011D0191069901600198011D0191079901600198011D66
:20554C000191089901600198011D0191099901600A98401E0A90ABD1009850F8041B0090BA
:20556C000291009850F8041B03910090009850F8041B04910090009850F8041B0591009020
:20558C00009850F8041B069100900198011D0191029901600198011D0191039901600198B5
:2055AC00011D0191049901600198011D0191059901600198011D0191069901600CB070472D
:2055CC004804010000C00021ADF1300D464800904648019035200A90009850F8041B0090FB
:2055EC000291009850F8041B03910090009850F8041B04910090009850F8041B05910090A0
:20560C00009850F8041B06910090009850F8041B07910090009850F8041B08910090009871
:20562C0050F8041B099100900198011D0191029901600198011D0191039901600198011D8B
:20564C000191049901600198011D0191059901600198011D0191069901600198011D0191D4
:20566C00079901600198011D0191089901600198011D0191099901600A98401E0A90ABD170
:20568C00009850F8041B00900291009850F8041B03910090009850F8041B049100900098FD
:2056AC0050F8041B05910090009850F8041B069100900198011D0191029901600198011D2F
:2056CC000191039901600198011D0191049901600198011D0191059901600198011D019157
:2056EC00069901600CB07047FC0A010000C00021ADF1300D464800904648019035200A903C
:20570C00009850F8041B00900291009850F8041B03910090009850F8041B0491009000987C
:20572C0050F8041B05910090009850F8041B06910090009850F8041B07910090009850F8A3
:20574C00041B08910090009850F8041B099100900198011D0191029901600198011D01913E
:20576C00039901600198011D0191049901600198011D0191059901600198011D01910699A9
:20578C0001600198011D0191079901600198011D0191089901600198011D019109990160BB
:2057AC000A98401E0A90ABD1009850F8041B00900291009850F8041B03910090009850F8A2
:2057CC00041B04910090009850F8041B05910090009850F8041B069100900198011D0191E5
:2057EC00029901600198011D0191039901600198011D0191049901600198011D019105992D
:20580C0001600198011D0191069901600CB07047B011010000C00021ADF1300D46480090C3
:20582C004648019035200A90009850F8041B00900291009850F8041B03910090009850F829
:20584C00041B04910090009850F8041B05910090009850F8041B06910090009850F8041BAE
:20586C0007910090009850F8041B08910090009850F8041B099100900198011D01910299BF
:20588C0001600198011D0191039901600198011D0191049901600198011D019105990160C6
:2058AC000198011D0191069901600198011D0191079901600198011D019108990160019865
:2058CC00011D0191099901600A98401E0A90ABD1009850F8041B00900291009850F8041BD2
:2058EC0003910090009850F8041B04910090009850F8041B05910090009850F8041B069199
:20590C0000900198011D0191029901600198011D0191039901600198011D01910499016019
:20592C000198011D0191059901600198011D0191069901600CB070476418010000C00021F9
:20594C00F8B5474C241F04F17005286800260746E0B1D4F88400F0B9D4F88000E8B1D4F810
:20596C00801038690969884215D197F83F00400911D3D4F88000C06840880028F9D0D4F8D4
:20598C008000C06840880128F3D006E004F58470022109F012FD002E5ED060683969884211
:2059AC0054D1684605F0F4FA58B1009848B1D4F8800030B9D4F8840018B9082006F0F6FF22
:2059CC00F8BD082008F05CFC97F83F0004F58476C0F3001028B9284608F0DEF9C4F88000B0
:2059EC0004E0284608F0D8F9C4F8840007F1180003C81A49C4430B1F1C601A681042FBD1B5
:205A0C000A6810430860F869C04341F80C0CF86951F8082C104341F8080CF868044607F079
:205A2C00B1FF2088A0F6020040B141F21E01401A04D041F6E671401A012803D80120214685
:205A4C0008F08AF84FF08041304603E004F584704FF4806109F0B1FCF8BDC046141004408D
:205A6C00240D0020B0B54349446809688068496800688847424D012205F118010A603E4939
:205A8C00A8B1237AFF2B12D010F0140F01D0020901D3277A4FB9C00804D30420086002202F
:205AAC0009F03AFCFF2020725FE0FF203DE0207A00285AD0314B401E19D0401E02D0FD386B
:205ACC0053D04FE01D68D4F8B4000570D4F8B870D4F8B400401CC4F8B400781EC4F8B800A4
:205AEC00D4F8B87007B3012F39D909221FE0D4F8B000401EC4F8B000D4F8B070E7B9D4F8E2
:205B0C00B8708FB10220D4F8A8202072127C2D1F012F4FEA420242F001022A6099BF032107
:205B2C0069600B220A6004E00020207204220A60022009F0F1FBB0BDD4F8AC0000781860F7
:205B4C00D4F8AC00022F00F10100C4F8AC00EED2D4F8B870002FEAD100202072052243F884
:205B6C00042CE5E7FF202072B0BD04F12C0009F026FCB0BDAC0100100428004008280040BD
:205B8C00042800402DE9F04304466568A7680E46ADF1140D09F0F7FB95F8E11019B109F0DF
:205BAC00CAFB00206EE04FF0010985F8E19009F0C2FB4FF00008C5F88880306928617069B2
:205BCC006861307E2876307B287330782870706885F8AC80686070694146092828BF4946CE
:205BEC0085F89410387B01F077FF204605F0FCF9F87E85F895002046FEF74CFF30B9387B44
:205C0C0001F054FE444685F8E1803AE0684609F04DF8009478791D4A019039796B4605F1F1
:205C2C001C0006F009FD684609F088F800941849B8686A46029005F1380006F0D1FD05F0DB
:205C4C0069F8C5F8A800287B012808D1D5F8A400104909F0B3F9D5F8A40000B184600E4A00
:205C6C0005F1CC000421234607F0B4FE287830B905F16C00414607F0E9FC084800E0B06889
:205C8C00A860204605B0BDE8F083C046C9820000858E0000DDBF000089F00000ADF20000A5
:205CAC002DE9F843424CA06FA56F04F1780900287BD00646F06840F603020827531C02E08E
:205CCC0040687F1EFFB260B15FB101888A4218BF8B42F5D131694CC830314CC189C881E80C
:205CEC00890005F1280090E80C00002705F12806B84686E88001A96879B13E464FF0E24015
:205D0C0006EA020110EA03070EBF002932400340B5F93C10AE682869B04709F034FB0646C9
:205D2C00B4F98E00401C6FF31F30A4F88E00484685F83F8008F030F8304609F0FCFAB4F9E9
:205D4C008C00B4F98E1088422FD16068D4F8D860D4F8DC7090F8A41000290CBF0520072036
:205D6C0003F068FA40462EB196F8A45005B9306886F8A48041462FB197F8A46006B9396889
:205D8C0087F8A480814238BF011C61B1B1F1FF3F0BD0084A126804F1B400B1FBF2F108F0B4
:205DAC00A8FDBDE8F88308F05DFABDE8F883C046200D0020882000202DE9FF47424C94F812
:205DCC00E70000286ED10127384E84F8E770F07C84F8E6007568C4F81051684609F0F0F990
:205DEC00002504F10C0001956B468DF80050304902952A4605F054FB2E4904F130006B4644
:205E0C002A4605F04DFB2C4904F154006B4681462A4605F045FBB16838468847DFF8A4808D
:205E2C002648327D08F104030078254E1868C0F3815A22B1BAF1030F04D184F8E170BAF163
:205E4C00030F15D0BAF1020F12D0BAF1010F0CD0022007F069F9042007F0A0FB012804D0DC
:205E6C0030683221B1FBF0F10DE006F0D7FC12E0022007F059F9BAF1030F0CBF4FF47A71D5
:205E8C0042F210713068B1FBF0F1484609F073FA484609F072FA40460068C00802D228463D
:205EAC0007F042F900200090BDE8FF87803A01009F980000E5800000E1A200008720002028
:205ECC0088200020B03F0050B43100202DE9F84F0E4607465FFA86F8300824BF3A484640B2
:205EEC00DFF8F090394C4FEA8805A9F10100405907EA0602144086EA00013940B843C1F3DA
:205F0C00006307F4E0210443B1F5E02F01D1600E14D307F4E020184310D004F4E020B0F520
:205F2C00A02007D0B0F5803004BF24F4003444F4A02403E024F4803444F4C02424484FF0E8
:205F4C00010A0AFA08FBC0F800B009F01CFA4946230A6D182B70220C6A70210EA97009F087
:205F6C00EAF91D4C524604F1D00ADAF80010002002FA08F50D4218BF101C5FEA000905D1ED
:205F8C00F80D24BFC6F3805004F80800380E0DD309F0F9F9310E34BF0021291CDAF80020E5
:205FAC00AA431143CAF8001009F0C5F9B9F1000F05D0F80D24BFC6F3805004F808000448BC
:205FCC00C0F800B0BDE8F88F006000A0007F077FE020026001100840002002402DE9F041B8
:205FEC00414C0546207800287AD0B4F98E00B4F98C1088421DD004F1700128460E4607F059
:20600C0043FA70B9D4F88010284608F08FFE28B906F10801284607F037FA01E0D4F880001B
:20602C0038B1B0F93C100A224FF0E043284601F013F909F0A8F9804604F1D8000168A942FC
:20604C0019BF00264660002606602078401EC0B22070A8BB6560207D02280ED1082006F020
:20606C00A5FC404609F067F905F148004FF0FF3108F0E7FD09F087F9804604F5847009F0E6
:20608C0096F904F1380009F07CF904F59E7009F08EF904F1540009F074F904F1900009F016
:2060AC0064F904F1B40009F060F904F1240007F0E9FE0C480078012802D10E2001F0F6FBAD
:2060CC00606805F14807854208BF6660404609F032F9384609F067F905F1800009F045F925
:2060EC00BDE8F081123C0100200D00202DE9F84FD0F88890D0F88CB0D9F80020A2EB0B0216
:20610C00B2F5806F88BF4FF48062C0F89020D0F8908090F894C00C681FFA88F2B4F1804FDA
:20612C0002FA0CF21FFA82FA14BF314B314B2D4AD9F808703FB94FEA8C050095AD18AE6906
:20614C0000F1AE050AE04FEA8C050095AD182E690CF101050BFB057555446D1E9E60964669
:20616C005D604FEA081643F6F07204F10805103E1D6032409E68B4F1804F42EA06069E6075
:20618C000CBF194E194ED9F804706FB9CC89009BA0F8AE4073449B69B36000F1AE0737606C
:2061AC000C6804F108050AE0009B73449B68B3600CF101030BFB037353445B1E3360756016
:2061CC00B3681A43B260D0F8A8000A6940684969006811438162606A40F003006062BDE8E9
:2061EC00F88FC0469C360100400400201005002000050020300400203EB500902D480068C1
:20620C00C00801D3022054E000992B483CC93CC03CC93CC01EC980E81E002849FF2008600D
:20622C002749012008602848264902880968274802F082F9264800688047264942F22B0038
:20624C000860254942F60B30086024494FF480700860234900200860224901200860224926
:20626C00012008602149012008602048006809F033F801900F49086840F0040008601C4849
:20628C001B49006820F07C5040F034500860019808F0EEFE1748006806F08EFF08F0CCFFA4
:2062AC0008F0D9FF06F0A0FF08F0CBFF08F0DDFF00203EBD10100940F81C002000600C4073
:2062CC0054600C40081D0020061D002000000E40141D002000500C4004500C4000100E40F1
:2062EC0034500C4018500C4008600C4048600C40003009402C2009402DE9FC4191EA03087F
:20630C004CBF4FF000484FF000084FEAC32545EA52554FEAC2264FEA43077F0D11BF45F06C
:20632C00004500210020BDE8FC815FF4E06E1EF1FF0E774555D04FEAC12343EA50534FEAE5
:20634C00C0224FEA4104640D11BF43F0004300210020BDE8FC81744543D0E419A3FB05014A
:20636C00A3FB06E7A2FB06631EEB030E57F1000751F10001A2FB05631EEB060E57F1000763
:20638C0051F10001FF1851F10001C01951F100014CBF4FF4806E4FF4007E10EB0E0051F1F0
:2063AC00000148BF641C01D4400049415FF44077FF37E41BDEBF00210020BDE8FC8117F55F
:2063CC008067BC420DD24FEAD02040EA41504FEA41014FEA113141EA045141EA0801BDE8BA
:2063EC00FC810020FF21C900C91D090551EA0801BDE8FC8181F000412DE9FC414FEA01244E
:20640C004FEA41052D0E04D1002C18BF0020BDE8FC8144F00044FF2D5ED04FEA94040029D0
:20642C0048BF64424FEA00224FEA40031B0E05D1002A14BF0020081CBDE8FC8142F00042F6
:20644C00FF2B4AD04FEA9202002848BF52425E1B41BF171C221C3C1C764248BF2B1C192ECD
:20646C0047BF44FA06F73A444FF0000803E0C6F11C0704FA07F8002A04BF0020BDE8FC8121
:20648C0046BF524201270027A3F101035200FBD512F080040DD002F0200548EA05088032E3
:2064AC0028BF5B1C02F0400458EA040808BF22F480729B1CDCBF0020BDE8FC81FF2B0ED281
:2064CC0022F0FF024FEA42024FEA522040EAC35040EAC770BDE8FC8108464FEAD0774FEAAE
:2064EC00C777FF204FEAC0503843BDE8FC8170472DE9F84F00298346009106DD02460098F3
:20650C000021401E42F8041BFBD10098DFF8C880DFF8CC900028C8F800B012DD2F48009C47
:20652C000768002537F8020B38B1D9F80000AE003158002088474BF80600641E05F10105D8
:20654C00F0D1284F41460120D7F80080C880B8F1000F22DD4FF0000A00980127002817DDDC
:20656C00ABF104060446002556F8040FB0F1FF3F04D0D9F800106958884730600021B0F123
:20658C00FF3F08BF01212D1D641E01EA0707EBD137B90AF1010AC245DEDB04A007F096FF61
:2065AC000D4900200860BDE8F88FC0467864632E72756E74696D652E537461727475703AF3
:2065CC0020276D61785061737365732720657863656564656400C046543B0020303D010012
:2065EC00343D01002C3D01000EB58DF805208DF80410009002208DF806002F48007810B1C0
:20660C002E48007808B1012054E09DF8040007F0FDFA08B902204DE029480068002100F0F1
:20662C00B7FF08B9092045E00098002832D09DF8040000282ED09DF8050058B321489DF865
:20664C0004100078884225D19DF80500082821DC9DF804009DF80520009942431A4801F057
:20666C006BFF1A489DF804201849007862F34500087017489DF805201549007862F3C70093
:20668C0008701449087820F08000087000208DF8060009E0009838B90E49087840F08000ED
:2066AC00087000208DF806000548006804F0BCF99DF806000EBDC046523A0020533A002088
:2066CC00041F0020503A0020E4360020E41C0020E51C0020D61C00207CB50546084603F077
:2066EC00C1FC364E02461821304606F041FF07F09DFD3449103909684C6840F2FF3200231E
:20670C0080B22C2100903046A04708F0F7FA1C210246304606F02CFF07F07AFD0246142111
:20672C00304606F025FF07F067FF02461021304606F01EFF284603F061FC02460C213046B5
:20674C0006F016FF284607F03FFF1D4C400040F020002070284607F043FF40F0100020707F
:20676C00284607F07FFB02462821304606F000FF284607F04DFF400040F06000E0702846F3
:20678C0007F052FFC00040F0800004F8080C284607F056FF800040F47C40A4F8930028465E
:2067AC0006F07AFC02460821304606F0E1FE4FF48000A4F2091108607CBDC04600A00C409F
:2067CC0049A10C40B40100100EB500918DF8040002208DF8050049E09DF8000007F016FA64
:2067EC00002853D09DF800002A4908702A482949294A0078097861F34500107000208DF8B4
:20680C00050043E02548007830B12548006800216A4600F087FF02E00098224908600020F5
:20682C008DF8050032E00098002100B101211E48017000208DF8050028E000981B49086037
:20684C0000208DF8050021E00420FCF721FC8DF805001BE00520FCF71BFC8DF8050015E01A
:20686C000620FCF715FC8DF805000FE09DF804000028B1D0401EC5D0401ED4D0401EDCD028
:20688C00401EE1D0401EE5D0401EE9D09DF805000EBDC046503A0020E41C0020523A0020D2
:2068AC00001F0020603A0020563A0020583A002038B5314C0D46A8084CD2E8085AD308F0D1
:2068CC00D1F8A060606804F170050146286878B10069054651B18D4208D0696AC90803D3DA
:2068EC00036A04210022984701206875294661604868224900780860022006F015FC112076
:20690C0001F0EAF801201E4D2075287810B90E2001F0E2F860684168886808B9C86810B102
:20692C00184808F0FBF91849184D072000230860296817482B606A686B60164B2A68A36178
:20694C0040EA02011A20296008F021FD192008F01EFD38BDFFF7A4F9204600F17801096810
:20696C0011B903F01BFE38BD00F5847045F0020108F023FD38BDC046200D0020D021084086
:20698C00123C010051000706000004601410044002000040F94B00002DE9F0471E46904665
:2069AC0089460746B6F1FF3FADF1480D09D046B1314909AB6846324607F070F80220694683
:2069CC0001E0002103200C918DF834002B4DCDF83C902C68CDF8408008F0CEFBEFF3118AD0
:2069EC002025E4190B9085F3118842464946384607F048FB031C33D1002E04BF8AF31188A4
:206A0C00002036D008F03AFA0B99064609A88861204609A908F080FB0B9806F0D7FA9DF804
:206A2C0034000024022802D10C9803F0CDFF8AF31188304607F046F8EFF3118385F311884A
:206A4C000C9810B108F0DFFC0C940B98846183F311889DF83400002814BF0E9B231C07E028
:206A6C000C9818B108F0CFFC00200C908AF31188184612B0BDE8F087B9D70000DC3C010023
:206A8C002DE9F0430D46334A314906462B46ADF1240D06F03EFD0028306108BF012053D0D6
:206AAC004FF00108002486F814802B48B461A84203D1684607F0E4FE6D46A946274D2868D9
:206ACC00274601E07F1C2868B84229DC2448B168244A006800291AD4B168404617468840FC
:206AEC00F060B168B86908F00BFB306408F0C6F9EFF311850746202080F31188304607F039
:206B0C009BFE85F31188384606F0DCFF06E01146F46040183064314607F076FC204613E0BA
:206B2C00B06B40F827406968FB0003EB071040184268002AC6D0304649469047484607F09B
:206B4C009BFC0028BED0B81C09B0BDE8F083C04669E4000095AA000050390020643C01005B
:206B6C00F43C0100A0360020F8B508F015FA03F0E1FA08F029FA054605F00C000C2853D0A2
:206B8C00E80826D206F0E6FD2A4E376804460120014607F0D6FA31686143884219D2264937
:206BAC00F020B0FBF7F0241A887C18B1C868A04238BF041C214D2146284608F026FC284628
:206BCC0007F0CEFE0120FCF77BFB284607F04AFA2CE0280928D21A4808F098F90428FAD09B
:206BEC00184A690905D220B11168104621F0010103E01046016841F00101016098321068B3
:206C0C004FF0805540F003001060D5F8B8018169202088470C4CD5F8B8712068B86B804772
:206C2C0001202060206801E008F09DFB08F0BAF9F8BDC046D43C0100803A0100C03100206B
:206C4C00004003408C2108402C2009402DE9F04106467468B56808F096FBD4F88810002979
:206C6C005ED00F4608F067FB2968486820F0020048602968486A20F0030048626869D4F893
:206C8C00A8302969084359680968C1F804052968486920F0010048612868012101623046B8
:206CAC0006F0C0FE7E6808F06EFB804694F8E00078B116F0704F06D12EB1062006F04EF895
:206CCC00042006F04BF8022006F048F8002084F8E000404608F02FFB387C012804BF02200D
:206CEC003874D4F8A86029696869084371680968C8622868B0F1804F14BF0B490B49D4F89F
:206D0C009020D4F88C00896880188904A0EB9150401E386004F1380008F051FBBDE8F08160
:206D2C0008F009FBBDE8F08100050020300400202DE9F04707467D68BE6890468A4608F079
:206D4C0022FB81463068006B00F48071287800B119B1484608F0EFFA57E005F5827008F0B6
:206D6C000EFB0024EC77C5F820A06C623168086B40F480700863484608F0DDFA05F2291004
:206D8C0007F0F0F84146384605F044FF05F22919A862A8B93846414604F072FCA878D0B917
:206DAC00A96805F1CC0007F04CFFE8B1AC621020E8773146284602F043FB05F2291022E035
:206DCC0008F0E1FA3268916B41F02001916308F0B2FAA87810B12046BDE8F087A96805F1EA
:206DEC00CC0007F02EFF10B9686ABDE8F0873846414604F045FC1020AC623146E877284624
:206E0C0002F01EFB484607F09DF84FF0FF30BDE8F08770470EB50191009006F085FC08B9E3
:206E2C0001205CE0019840080CD32E492C48009A0968008809880843024203D008F00CF9BB
:206E4C0002204CE028480068400807D3274901200860254800684008FBD203E008F0FCF82C
:206E6C0001203CE0019840080AD31E49BDF80000096888801A4900980A881043088003E02B
:206E8C0018480068002181800198800805D31549BDF800000968C88003E012480068002171
:206EAC00C1800198C00805D30E49BDF800000968088103E00B4800680021018108F0BCF958
:206ECC0008F0C9F90A49086840F0400008600849086820F04000086008F0BEF800200EBD3F
:206EEC00041D0020FC1C00200C500C403C500C4000500C40F8B50F1C054637D107F0BEFF12
:206F0C00EFF311840646202080F31188287D012811D1284608F039F8286C08F02FF820B18B
:206F2C002849EA68486890434860A86918B1C06808B108F068FA287D022808D1A86930B1A8
:206F4C0008F023F8A869C06808B108F05CFA287D032803D0284606F067FA02E0284608F022
:206F6C0014F884F31188304606F0ACFD012F27D0686AB0F1FF3F03D0296AEA6907F096FFB7
:206F8C00022F1DD0104C2068032F19D0002817DD002F14BF3F1F071C002F0BDD0026606824
:206FAC008019416909B1284688477F1E06F11806F5D1206882000548A96B006807F076FFD4
:206FCC00F8BDC046A0360020643C0100FC3C01002DE9F04115460446A869A060686A98466D
:206FEC000E4608B92C4800686062286A002806BF2A480768071C08F059F8EB6983B918B1AD
:20700C00C1194742491E0F40E7610246E169606A434602F03FFE2062A8B90120BDE8F081D5
:20702C00002804BF2362391C09D04142C018401E084020623F1AE8693F18E7613940E1611F
:20704C004FF0FF306062A6622869E06268692063A86A6063A88D0128A08703D11149C8680D
:20706C00401CC86010480068002808DD81000C4800680022434608F091F8A06348B12046E8
:20708C004146FFF7FDFC002814BF801C0020BDE8F0810220BDE8F081043D0100083D0100E1
:2070AC00FC3C0100A0360020643C01002DE9F8430D46064668687468D6F80890002710B902
:2070CC00E86800285AD008F05EF9217801290CD1D4F8BC1049B1D4F8C0108D61C4F8C0502B
:2070EC0008F029F90120BDE8F883C4F8BC50C4F8C05008F020F904F160083946404607F02B
:20710C00A0FDB0F1FF3F07D12078012836D040464FF0FF3107F095FD022006F005F8D9F8E4
:20712C00080008F032F93046294601F05FFE0546D9F8080008F02BF9207888B9B5F1FF3FE8
:20714C0008D004F17C004FF0FF3107F07AFD207A48B110E003202072022005F0FFFD0AE0C8
:20716C00B5F1FF3F01D0012705E00320207204F12C0008F024F9404608F017F93846BDE8A5
:20718C00F883704780B50288A2F602073FB143F20502BF1A14BF002090F8240000E0C07B92
:2071AC002C4AD2F88832401F0B6048D0401E3CD0001F30D0801E24D0C01E18D00F380CD0E3
:2071CC00D2F890024860D2F894028860D2F8BC0220F0784040F080503AE050694860D06A52
:2071EC008860506C20F0784040F0704030E010694860906A8860106C20F0784040F0F04080
:20720C0026E0D0684860506A8860D06B20F0784040F0C0401CE090684860106A8860906BAE
:20722C0020F0784040F0A04012E050684860D0698860506B20F0784040F0405008E0106854
:20724C00486090698860106B20F0784040F02050C86080BDC41000502DE9F84304469946B3
:20726C0090460E1C44BF0020011C5BD408F0A1F8054631468022204605F076FA071C04D0DC
:20728C0097F83F1031F07F0106D1284605F06AFE02200021BDE8F8834FF0E0400A2107F1DC
:2072AC00200640EA090941EA080896E8030008EA000019EA010608BF00281CD0284605F06A
:2072CC0051FE07F1200003C804F1780604F1780508EA000809EA010986E8000395E80C009A
:2072EC0007F1200696E8030007F120059943904385E8030013E00C48B968884202D0B96882
:20730C002167B86004F1680080E80003284605F029FE04F148004FF0FF3107F092FC783492
:20732C0094E80300BDE8F883C5AC0000D0B501460888A0F6020058B143F20402801A04D08B
:20734C00401E12D191F8247000E00227CE6901E0CF7B4E694EB1304644F238014FF6FF7207
:20736C00052306F023FB052801DB0120D0BD06EB800632681F4B781FC2F3034417D01C49B4
:20738C00401E0FD0001F0BD0801E07D0C01E0AD00F381ABF191C6031091D04E0091F02E083
:2073AC00083900E00C390868C0F3834003E019460868C0F303200F2806D0A04216D922F4F9
:2073CC00702242EA004210E07F1F0AD07F1F08D07F1F06D00F3F1CBF22F4702242F48022A6
:2073EC0003D122F4002242F4E02232600020D0BD04110050201300502DE9FE4FDFF8C0809C
:20740C0098F8D10100284FD0002501212C4698F8D12101FA04F0104203D1641C032CF6D3EF
:20742C0042E098F8D1211020A040104218BF0D1C07F0A9FF98F8D1211121A1408A4388F8B9
:20744C00D12107F078FFE0B207F03EFB60B3877A57B390F9099019490768012D446851F8CA
:20746C002960019710D0017A02290DD100F1100191E8000C00274FF0805317EA0B0703EABB
:20748C000A0108BF002901D102F05AF8012D04D0009600224FF0006303E000224FF00073BC
:2074AC00009201984946A04798F8D10120B108F59E70002107F081FFBDE8FE8F943004400F
:2074CC00200D00201EF0040F14BFEFF3098169468869EFF3118102B400B5DFF8A0E0F047E6
:2074EC00294A116801EA000010605DF804EB1EF0080F03D101BC80F31188704704BC1EF0AE
:20750C00040F14BFEFF309816946A1F1200114BF81F309888D464A604FF08070C8611B489B
:20752C008861194B1868086040F201101860704702B401B4EFF3148100291CBF002282F31B
:20754C00148802B402B4DFF838E0F04701BC01BC00281CBF022181F3148801BCDFF824E0A9
:20756C00F04705484FF08051016001BC80F3118800BF00BFFEE7C04604ED00E0B1B30000A3
:20758C00EDF200003DF30000443700203D7500002DE9F0410E460746B6F1FF3FADF1380DD3
:2075AC0009D046B12B4909AB6846324606F076FA0220694601E000210320274C0C91EFF353
:2075CC00118825688DF834002024ED1984F31188788980BB002E04BF88F31188002036D0FF
:2075EC0007F04CFC064607F0C7FD0B9009A9816105F0ECFC284609A907F08EFD9DF83400C2
:20760C000025022802D10C9803F0DEF988F31188304606F057FAEFF3118384F311880C98D3
:20762C0010B107F0F0FE0C950B98856183F311889DF834000BE07889401E78810C9818B1E6
:20764C0007F0E1FE00200C9088F3118801200EB0BDE8F0813DD80000EC3C01002B4A2DE9BA
:20766C00F04180460124A2F13000046024480768002FFCD02649234DC0200B1F28601868F4
:20768C00800806D253F8040C1F4B000C40F0F0001870002010600E68304600F027FC4046F0
:2076AC003146FFF719F81B49886D40F21E226FF31F40824215D90868020E12F00F0F02F070
:2076CC000F01C0F3034018BF491E072805D006280EBF0720801C00F00F0041EA00110E4807
:2076EC0001703046FDF746FE0C480068C16802208847402028600A4F3C60BDE8F081C04690
:20770C009402224300600C405662084040100940B43F0050BC12005002600840A001001061
:20772C00940460422DE9F04116468846044607F02AFE07462A488325B8F1080F32D8DFE831
:20774C0008F0463F3C313725150533C00446207DD0B9206FC0B9316804F5847007F031FEA6
:20776C00316804F59E7007F02CFE32E00446207D50B9206F40B93168192007F00EFE316844
:20778C001A2007F00AFE24E0002522E0306828B1012807D1802005F009F91AE0802006F0E0
:2077AC006FFD16E0032514E030780E49087010E031680446103421600BE03088E08208E043
:2077CC0001202669607506F16000206101E030682060384607F0AFFD2846BDE8F081C0469C
:2077EC00200D0020F00E0020ADF1300D2D4800902D48019020200A90009850F8041B0090C3
:20780C000291009850F8041B03910090009850F8041B04910090009850F8041B059100905D
:20782C00009850F8041B06910090009850F8041B07910090009850F8041B0891009000982F
:20784C0050F8041B099100900198011D0191029901600198011D0191039901600198011D49
:20786C000191049901600198011D0191059901600198011D0191069901600198011D019192
:20788C00079901600198011D0191089901600198011D0191099901600A98401E0A90ABD12E
:2078AC000CB07047382F0100008000212DE9B043044607F068FD81462748221892F8EF1098
:2078CC00491ECFB2002F82F8EF703FD1254901EB84014A880C78904634F07F0718D1E10914
:2078EC000FD24FF0805000F5DC75D0F8B8018169104688472868416B404688470228F9D131
:20790C001EE000EB8800D0F804110020884717E04FF08055D5F8B801016A10468847D5F830
:20792C00B801816A40468847D5F8B801016B404688470A4901200860094908688008FCD306
